{
  "contractName": "BloodBank",
  "abi": [
    {
      "inputs": [],
      "stateMutability": "nonpayable",
      "type": "constructor"
    },
    {
      "anonymous": false,
      "inputs": [
        {
          "indexed": false,
          "internalType": "address",
          "name": "_bank",
          "type": "address"
        },
        {
          "indexed": false,
          "internalType": "string",
          "name": "_centerName",
          "type": "string"
        }
      ],
      "name": "BankRegistered",
      "type": "event"
    },
    {
      "anonymous": false,
      "inputs": [
        {
          "indexed": false,
          "internalType": "address",
          "name": "_requester",
          "type": "address"
        },
        {
          "indexed": false,
          "internalType": "uint256",
          "name": "_cId",
          "type": "uint256"
        },
        {
          "indexed": false,
          "internalType": "uint8",
          "name": "_bloodgrp",
          "type": "uint8"
        },
        {
          "indexed": false,
          "internalType": "uint256",
          "name": "_units",
          "type": "uint256"
        },
        {
          "indexed": false,
          "internalType": "uint256",
          "name": "_time",
          "type": "uint256"
        }
      ],
      "name": "BloodRequest",
      "type": "event"
    },
    {
      "anonymous": false,
      "inputs": [
        {
          "indexed": false,
          "internalType": "uint256",
          "name": "_dId",
          "type": "uint256"
        },
        {
          "indexed": false,
          "internalType": "uint256",
          "name": "_time",
          "type": "uint256"
        },
        {
          "indexed": false,
          "internalType": "uint256",
          "name": "_slottime",
          "type": "uint256"
        }
      ],
      "name": "Bookslot",
      "type": "event"
    },
    {
      "anonymous": false,
      "inputs": [
        {
          "indexed": false,
          "internalType": "address",
          "name": "_donor",
          "type": "address"
        },
        {
          "indexed": false,
          "internalType": "uint256",
          "name": "_center",
          "type": "uint256"
        },
        {
          "indexed": false,
          "internalType": "string",
          "name": "_bloodgrp",
          "type": "string"
        },
        {
          "indexed": false,
          "internalType": "uint256",
          "name": "_recentDonation",
          "type": "uint256"
        }
      ],
      "name": "DonorRegistered",
      "type": "event"
    },
    {
      "anonymous": false,
      "inputs": [
        {
          "indexed": false,
          "internalType": "address",
          "name": "_admin",
          "type": "address"
        },
        {
          "indexed": false,
          "internalType": "uint256",
          "name": "_requesterid",
          "type": "uint256"
        },
        {
          "indexed": false,
          "internalType": "uint256",
          "name": "_time",
          "type": "uint256"
        }
      ],
      "name": "RequestGranted",
      "type": "event"
    },
    {
      "anonymous": false,
      "inputs": [
        {
          "indexed": false,
          "internalType": "address",
          "name": "_center",
          "type": "address"
        },
        {
          "indexed": false,
          "internalType": "uint8",
          "name": "_bloodgrp",
          "type": "uint8"
        },
        {
          "indexed": false,
          "internalType": "uint256",
          "name": "_qty",
          "type": "uint256"
        },
        {
          "indexed": false,
          "internalType": "uint256",
          "name": "_time",
          "type": "uint256"
        }
      ],
      "name": "StockDecreased",
      "type": "event"
    },
    {
      "anonymous": false,
      "inputs": [
        {
          "indexed": false,
          "internalType": "address",
          "name": "_center",
          "type": "address"
        },
        {
          "indexed": false,
          "internalType": "uint8",
          "name": "_bloodgrp",
          "type": "uint8"
        },
        {
          "indexed": false,
          "internalType": "uint256",
          "name": "_qty",
          "type": "uint256"
        },
        {
          "indexed": false,
          "internalType": "uint256",
          "name": "_time",
          "type": "uint256"
        }
      ],
      "name": "StockIncreased",
      "type": "event"
    },
    {
      "inputs": [
        {
          "internalType": "address",
          "name": "",
          "type": "address"
        }
      ],
      "name": "bankId",
      "outputs": [
        {
          "internalType": "uint256",
          "name": "",
          "type": "uint256"
        }
      ],
      "stateMutability": "view",
      "type": "function"
    },
    {
      "inputs": [
        {
          "internalType": "uint256",
          "name": "",
          "type": "uint256"
        }
      ],
      "name": "banks",
      "outputs": [
        {
          "internalType": "address",
          "name": "add",
          "type": "address"
        },
        {
          "internalType": "string",
          "name": "name",
          "type": "string"
        },
        {
          "internalType": "string",
          "name": "city",
          "type": "string"
        },
        {
          "internalType": "string",
          "name": "email",
          "type": "string"
        },
        {
          "internalType": "uint256",
          "name": "contact",
          "type": "uint256"
        },
        {
          "internalType": "uint8",
          "name": "isBank",
          "type": "uint8"
        },
        {
          "internalType": "uint8",
          "name": "isadmin",
          "type": "uint8"
        }
      ],
      "stateMutability": "view",
      "type": "function"
    },
    {
      "inputs": [],
      "name": "counterB",
      "outputs": [
        {
          "internalType": "uint256",
          "name": "",
          "type": "uint256"
        }
      ],
      "stateMutability": "view",
      "type": "function"
    },
    {
      "inputs": [],
      "name": "counterD",
      "outputs": [
        {
          "internalType": "uint256",
          "name": "",
          "type": "uint256"
        }
      ],
      "stateMutability": "view",
      "type": "function"
    },
    {
      "inputs": [],
      "name": "counterR",
      "outputs": [
        {
          "internalType": "uint256",
          "name": "",
          "type": "uint256"
        }
      ],
      "stateMutability": "view",
      "type": "function"
    },
    {
      "inputs": [
        {
          "internalType": "address",
          "name": "",
          "type": "address"
        }
      ],
      "name": "donorId",
      "outputs": [
        {
          "internalType": "uint256",
          "name": "",
          "type": "uint256"
        }
      ],
      "stateMutability": "view",
      "type": "function"
    },
    {
      "inputs": [
        {
          "internalType": "uint256",
          "name": "",
          "type": "uint256"
        }
      ],
      "name": "donors",
      "outputs": [
        {
          "internalType": "address",
          "name": "add",
          "type": "address"
        },
        {
          "internalType": "uint256",
          "name": "cId",
          "type": "uint256"
        },
        {
          "internalType": "string",
          "name": "name",
          "type": "string"
        },
        {
          "internalType": "string",
          "name": "city",
          "type": "string"
        },
        {
          "internalType": "uint256",
          "name": "contact",
          "type": "uint256"
        },
        {
          "internalType": "uint256",
          "name": "age",
          "type": "uint256"
        },
        {
          "internalType": "string",
          "name": "gender",
          "type": "string"
        },
        {
          "internalType": "string",
          "name": "bloodgrp",
          "type": "string"
        },
        {
          "internalType": "string",
          "name": "cname",
          "type": "string"
        },
        {
          "internalType": "uint256",
          "name": "recentDonation",
          "type": "uint256"
        },
        {
          "internalType": "uint8",
          "name": "isDonor",
          "type": "uint8"
        },
        {
          "internalType": "uint256",
          "name": "_slot",
          "type": "uint256"
        }
      ],
      "stateMutability": "view",
      "type": "function"
    },
    {
      "inputs": [],
      "name": "owner",
      "outputs": [
        {
          "internalType": "address",
          "name": "",
          "type": "address"
        }
      ],
      "stateMutability": "view",
      "type": "function"
    },
    {
      "inputs": [
        {
          "internalType": "uint256",
          "name": "",
          "type": "uint256"
        }
      ],
      "name": "request",
      "outputs": [
        {
          "internalType": "address",
          "name": "_requester",
          "type": "address"
        },
        {
          "internalType": "uint256",
          "name": "_cId",
          "type": "uint256"
        },
        {
          "internalType": "uint8",
          "name": "_bloodgrp",
          "type": "uint8"
        },
        {
          "internalType": "uint256",
          "name": "_qty",
          "type": "uint256"
        },
        {
          "internalType": "uint256",
          "name": "isGranted",
          "type": "uint256"
        }
      ],
      "stateMutability": "view",
      "type": "function"
    },
    {
      "inputs": [
        {
          "internalType": "uint256",
          "name": "",
          "type": "uint256"
        },
        {
          "internalType": "uint256",
          "name": "",
          "type": "uint256"
        }
      ],
      "name": "slot",
      "outputs": [
        {
          "internalType": "uint256",
          "name": "",
          "type": "uint256"
        }
      ],
      "stateMutability": "view",
      "type": "function"
    },
    {
      "inputs": [
        {
          "internalType": "address",
          "name": "_add",
          "type": "address"
        },
        {
          "internalType": "string",
          "name": "_name",
          "type": "string"
        },
        {
          "internalType": "string",
          "name": "_city",
          "type": "string"
        },
        {
          "internalType": "string",
          "name": "_email",
          "type": "string"
        },
        {
          "internalType": "uint256",
          "name": "_contact",
          "type": "uint256"
        }
      ],
      "name": "NewBank",
      "outputs": [],
      "stateMutability": "nonpayable",
      "type": "function"
    },
    {
      "inputs": [
        {
          "internalType": "address",
          "name": "_add",
          "type": "address"
        }
      ],
      "name": "ViewBank",
      "outputs": [
        {
          "internalType": "address",
          "name": "",
          "type": "address"
        },
        {
          "internalType": "string",
          "name": "",
          "type": "string"
        },
        {
          "internalType": "string",
          "name": "",
          "type": "string"
        },
        {
          "internalType": "string",
          "name": "",
          "type": "string"
        },
        {
          "internalType": "uint256",
          "name": "",
          "type": "uint256"
        },
        {
          "internalType": "uint8",
          "name": "",
          "type": "uint8"
        },
        {
          "internalType": "uint8",
          "name": "",
          "type": "uint8"
        }
      ],
      "stateMutability": "view",
      "type": "function"
    },
    {
      "inputs": [
        {
          "internalType": "uint256",
          "name": "_dId",
          "type": "uint256"
        },
        {
          "internalType": "uint256",
          "name": "_slottime",
          "type": "uint256"
        }
      ],
      "name": "BookSlot",
      "outputs": [],
      "stateMutability": "nonpayable",
      "type": "function"
    },
    {
      "inputs": [
        {
          "internalType": "uint256",
          "name": "_id",
          "type": "uint256"
        }
      ],
      "name": "GrantRequest",
      "outputs": [],
      "stateMutability": "nonpayable",
      "type": "function"
    },
    {
      "inputs": [
        {
          "internalType": "uint8",
          "name": "_bloodgrp",
          "type": "uint8"
        },
        {
          "internalType": "uint256",
          "name": "_qty",
          "type": "uint256"
        }
      ],
      "name": "ReduceStock",
      "outputs": [],
      "stateMutability": "nonpayable",
      "type": "function"
    },
    {
      "inputs": [
        {
          "internalType": "uint8",
          "name": "_bloodgrp",
          "type": "uint8"
        },
        {
          "internalType": "uint256",
          "name": "_qty",
          "type": "uint256"
        }
      ],
      "name": "IncreaseStock",
      "outputs": [],
      "stateMutability": "nonpayable",
      "type": "function"
    },
    {
      "inputs": [
        {
          "internalType": "uint256",
          "name": "_cId",
          "type": "uint256"
        },
        {
          "internalType": "string",
          "name": "_name",
          "type": "string"
        },
        {
          "internalType": "string",
          "name": "_city",
          "type": "string"
        },
        {
          "internalType": "uint256",
          "name": "_contact",
          "type": "uint256"
        },
        {
          "internalType": "uint256",
          "name": "_age",
          "type": "uint256"
        },
        {
          "internalType": "string",
          "name": "_gender",
          "type": "string"
        },
        {
          "internalType": "string",
          "name": "_bloodgrp",
          "type": "string"
        },
        {
          "internalType": "string",
          "name": "_cname",
          "type": "string"
        },
        {
          "internalType": "uint256",
          "name": "_recentDonation",
          "type": "uint256"
        }
      ],
      "name": "RegisterDonor",
      "outputs": [],
      "stateMutability": "nonpayable",
      "type": "function"
    },
    {
      "inputs": [
        {
          "internalType": "address",
          "name": "_add",
          "type": "address"
        }
      ],
      "name": "ViewDonor",
      "outputs": [
        {
          "internalType": "address",
          "name": "",
          "type": "address"
        },
        {
          "internalType": "uint256",
          "name": "",
          "type": "uint256"
        },
        {
          "internalType": "string",
          "name": "",
          "type": "string"
        },
        {
          "internalType": "string",
          "name": "",
          "type": "string"
        },
        {
          "internalType": "uint256",
          "name": "",
          "type": "uint256"
        },
        {
          "internalType": "uint256",
          "name": "",
          "type": "uint256"
        },
        {
          "internalType": "string",
          "name": "",
          "type": "string"
        },
        {
          "internalType": "string",
          "name": "",
          "type": "string"
        },
        {
          "internalType": "string",
          "name": "",
          "type": "string"
        },
        {
          "internalType": "uint256",
          "name": "",
          "type": "uint256"
        },
        {
          "internalType": "uint256",
          "name": "",
          "type": "uint256"
        }
      ],
      "stateMutability": "view",
      "type": "function"
    },
    {
      "inputs": [
        {
          "internalType": "uint256",
          "name": "_cId",
          "type": "uint256"
        },
        {
          "internalType": "uint8",
          "name": "_bloodgrp",
          "type": "uint8"
        },
        {
          "internalType": "uint256",
          "name": "_units",
          "type": "uint256"
        }
      ],
      "name": "RequestBlood",
      "outputs": [],
      "stateMutability": "nonpayable",
      "type": "function"
    },
    {
      "inputs": [
        {
          "internalType": "address",
          "name": "_add",
          "type": "address"
        }
      ],
      "name": "viewStock",
      "outputs": [
        {
          "internalType": "uint256[8]",
          "name": "",
          "type": "uint256[8]"
        }
      ],
      "stateMutability": "view",
      "type": "function"
    }
  ],
  "bytecode": "0x608060405234801561001057600080fd5b50336000806101000a81548173ffffffffffffffffffffffffffffffffffffffff021916908373ffffffffffffffffffffffffffffffffffffffff16021790555061373c806100606000396000f3fe608060405234801561001057600080fd5b506004361061012b5760003560e01c806382f91680116100ad578063d845a4b311610071578063d845a4b314610383578063dff2ae67146103b7578063e29efc6e146103d3578063e3854beb146103ef578063ec2cbb9f146104255761012b565b806382f91680146102d35780638d5432cb1461030d5780638da5cb5b1461032b578063a002aab714610349578063a20a7c53146103655761012b565b80634abfa163116100f45780634abfa1631461021257806356d1a6cd1461024d5780636bc83cbe146102695780637978862c14610285578063822c64f1146102a35761012b565b806285ae2b146101305780631004a40f14610166578063311fcd0b146101965780633b60766e146101b25780633cb96882146101e2575b600080fd5b61014a6004803603810190610145919061286a565b610441565b60405161015d9796959493929190612e2d565b60405180910390f35b610180600480360381019061017b9190612782565b610655565b60405161018d9190613177565b60405180910390f35b6101b060048036038101906101ab919061286a565b610743565b005b6101cc60048036038101906101c79190612782565b61093d565b6040516101d991906132b3565b60405180910390f35b6101fc60048036038101906101f79190612782565b610955565b60405161020991906132b3565b60405180910390f35b61022c6004803603810190610227919061286a565b61096d565b6040516102449c9b9a99989796959493929190612f7f565b60405180910390f35b61026760048036038101906102629190612893565b610ca2565b005b610283600480360381019061027e9190612a0d565b611147565b005b61028d611288565b60405161029a91906132b3565b60405180910390f35b6102bd60048036038101906102b891906129d1565b61128e565b6040516102ca91906132b3565b60405180910390f35b6102ed60048036038101906102e89190612782565b6112bf565b6040516103049b9a99989796959493929190612eb1565b60405180910390f35b61031561170e565b60405161032291906132b3565b60405180910390f35b610333611714565b6040516103409190612de2565b60405180910390f35b610363600480360381019061035e9190612a5c565b611738565b005b61036d611902565b60405161037a91906132b3565b60405180910390f35b61039d6004803603810190610398919061286a565b611908565b6040516103ae9594939291906130df565b60405180910390f35b6103d160048036038101906103cc91906127ab565b61196b565b005b6103ed60048036038101906103e891906129d1565b611def565b005b61040960048036038101906104049190612782565b611fe5565b60405161041c9796959493929190612e2d565b60405180910390f35b61043f600480360381019061043a9190612a5c565b6123d1565b005b60026020528060005260406000206000915090508060000160009054906101000a900473ffffffffffffffffffffffffffffffffffffffff169080600101805461048a9061354f565b80601f01602080910402602001604051908101604052809291908181526020018280546104b69061354f565b80156105035780601f106104d857610100808354040283529160200191610503565b820191906000526020600020905b8154815290600101906020018083116104e657829003601f168201915b5050505050908060020180546105189061354f565b80601f01602080910402602001604051908101604052809291908181526020018280546105449061354f565b80156105915780601f1061056657610100808354040283529160200191610591565b820191906000526020600020905b81548152906001019060200180831161057457829003601f168201915b5050505050908060030180546105a69061354f565b80601f01602080910402602001604051908101604052809291908181526020018280546105d29061354f565b801561061f5780601f106105f45761010080835404028352916020019161061f565b820191906000526020600020905b81548152906001019060200180831161060257829003601f168201915b5050505050908060040154908060050160009054906101000a900460ff16908060050160019054906101000a900460ff16905087565b61065d61259b565b61066561259b565b60005b60088160ff1610156107395760026000600160008773ffffffffffffffffffffffffffffffffffffffff1673ffffffffffffffffffffffffffffffffffffffff16815260200190815260200160002054815260200190815260200160002060060160008260ff1660ff16815260200190815260200160002054828260ff166008811061071d577f4e487b7100000000000000000000000000000000000000000000000000000000600052603260045260246000fd5b6020020181815250508080610731906135ca565b915050610668565b5080915050919050565b336000600160008373ffffffffffffffffffffffffffffffffffffffff1673ffffffffffffffffffffffffffffffffffffffff16815260200190815260200160002054905060016002600083815260200190815260200160002060050160019054906101000a900460ff1660ff161480610808575060008054906101000a900473ffffffffffffffffffffffffffffffffffffffff1673ffffffffffffffffffffffffffffffffffffffff168273ffffffffffffffffffffffffffffffffffffffff16145b610847576040517f08c379a000000000000000000000000000000000000000000000000000000000815260040161083e90613193565b60405180910390fd5b60006005600085815260200190815260200160002060020160009054906101000a900460ff16905060006002600086815260200190815260200160002060060160008360ff1660ff1681526020019081526020016000205414156108e0576040517f08c379a00000000000000000000000000000000000000000000000000000000081526004016108d7906131b3565b60405180910390fd5b600160056000868152602001908152602001600020600401819055507f7418870c2082d7103c55c208cb3250760072890df4f5b4309ae876fbb674441b33854260405161092f939291906130a8565b60405180910390a150505050565b60036020528060005260406000206000915090505481565b60016020528060005260406000206000915090505481565b60046020528060005260406000206000915090508060000160009054906101000a900473ffffffffffffffffffffffffffffffffffffffff16908060010154908060020180546109bc9061354f565b80601f01602080910402602001604051908101604052809291908181526020018280546109e89061354f565b8015610a355780601f10610a0a57610100808354040283529160200191610a35565b820191906000526020600020905b815481529060010190602001808311610a1857829003601f168201915b505050505090806003018054610a4a9061354f565b80601f0160208091040260200160405190810160405280929190818152602001828054610a769061354f565b8015610ac35780601f10610a9857610100808354040283529160200191610ac3565b820191906000526020600020905b815481529060010190602001808311610aa657829003601f168201915b505050505090806004015490806005015490806006018054610ae49061354f565b80601f0160208091040260200160405190810160405280929190818152602001828054610b109061354f565b8015610b5d5780601f10610b3257610100808354040283529160200191610b5d565b820191906000526020600020905b815481529060010190602001808311610b4057829003601f168201915b505050505090806007018054610b729061354f565b80601f0160208091040260200160405190810160405280929190818152602001828054610b9e9061354f565b8015610beb5780601f10610bc057610100808354040283529160200191610beb565b820191906000526020600020905b815481529060010190602001808311610bce57829003601f168201915b505050505090806008018054610c009061354f565b80601f0160208091040260200160405190810160405280929190818152602001828054610c2c9061354f565b8015610c795780601f10610c4e57610100808354040283529160200191610c79565b820191906000526020600020905b815481529060010190602001808311610c5c57829003601f168201915b50505050509080600901549080600a0160009054906101000a900460ff169080600b015490508c565b8560005b60008214610cd057600a82610cbb9190613405565b91508080610cc8906135ca565b915050610ca6565b600a8160ff1614610d16576040517f08c379a0000000000000000000000000000000000000000000000000000000008152600401610d0d90613273565b60405180910390fd5b8660005b60008214610d4457600a82610d2f9190613405565b91508080610d3c906135ca565b915050610d1a565b60028160ff1614610d8a576040517f08c379a0000000000000000000000000000000000000000000000000000000008152600401610d8190613233565b60405180910390fd5b600060046000600360003373ffffffffffffffffffffffffffffffffffffffff1673ffffffffffffffffffffffffffffffffffffffff168152602001908152602001600020548152602001908152602001600020600a0160009054906101000a900460ff1660ff1614610e32576040517f08c379a0000000000000000000000000000000000000000000000000000000008152600401610e29906131d3565b60405180910390fd5b6001600260008f815260200190815260200160002060050160009054906101000a900460ff1660ff1614610e9b576040517f08c379a0000000000000000000000000000000000000000000000000000000008152600401610e9290613253565b60405180910390fd5b60086000815480929190610eae90613581565b9190505550610ebb6125be565b600854600360003373ffffffffffffffffffffffffffffffffffffffff1673ffffffffffffffffffffffffffffffffffffffff1681526020019081526020016000208190555033816000019073ffffffffffffffffffffffffffffffffffffffff16908173ffffffffffffffffffffffffffffffffffffffff16815250508d8160200181815250508c81604001819052508b81606001819052508a816080018181525050898160a0018181525050888160c00181905250878160e00181905250868161010001819052506201518086610f949190613436565b81610120018181525050600181610140019060ff16908160ff16815250508060046000600854815260200190815260200160002060008201518160000160006101000a81548173ffffffffffffffffffffffffffffffffffffffff021916908373ffffffffffffffffffffffffffffffffffffffff160217905550602082015181600101556040820151816002019080519060200190611035929190612638565b506060820151816003019080519060200190611052929190612638565b506080820151816004015560a0820151816005015560c0820151816006019080519060200190611083929190612638565b5060e08201518160070190805190602001906110a0929190612638565b506101008201518160080190805190602001906110be929190612638565b50610120820151816009015561014082015181600a0160006101000a81548160ff021916908360ff16021790555061016082015181600b01559050507f672fe43beef440e05afbbb7e5f15c1cb230f6b8f483a2a9022867dd8c88e1f4b338f8a8960405161112f949392919061305c565b60405180910390a15050505050505050505050505050565b6009600081548092919061115a90613581565b919050555060006040518060a001604052803373ffffffffffffffffffffffffffffffffffffffff1681526020018581526020018460ff168152602001838152602001600081525090508060056000600954815260200190815260200160002060008201518160000160006101000a81548173ffffffffffffffffffffffffffffffffffffffff021916908373ffffffffffffffffffffffffffffffffffffffff1602179055506020820151816001015560408201518160020160006101000a81548160ff021916908360ff16021790555060608201518160030155608082015181600401559050507f70b98257fe1bb6abb91d42af7aba192805756c16caf59ca3865da21149f509d3338585854260405161127a9594939291906130df565b60405180910390a150505050565b60075481565b600660205281600052604060002081815481106112aa57600080fd5b90600052602060002001600091509150505481565b60008060608060008060608060606000806000600360008e73ffffffffffffffffffffffffffffffffffffffff1673ffffffffffffffffffffffffffffffffffffffff1681526020019081526020016000205490506004600082815260200190815260200160002060000160009054906101000a900473ffffffffffffffffffffffffffffffffffffffff1660046000838152602001908152602001600020600101546004600084815260200190815260200160002060020160046000858152602001908152602001600020600301600460008681526020019081526020016000206004015460046000878152602001908152602001600020600501546004600088815260200190815260200160002060060160046000898152602001908152602001600020600701600460008a8152602001908152602001600020600801600460008b815260200190815260200160002060090154600460008c8152602001908152602001600020600b01548880546114389061354f565b80601f01602080910402602001604051908101604052809291908181526020018280546114649061354f565b80156114b15780601f10611486576101008083540402835291602001916114b1565b820191906000526020600020905b81548152906001019060200180831161149457829003601f168201915b505050505098508780546114c49061354f565b80601f01602080910402602001604051908101604052809291908181526020018280546114f09061354f565b801561153d5780601f106115125761010080835404028352916020019161153d565b820191906000526020600020905b81548152906001019060200180831161152057829003601f168201915b505050505097508480546115509061354f565b80601f016020809104026020016040519081016040528092919081815260200182805461157c9061354f565b80156115c95780601f1061159e576101008083540402835291602001916115c9565b820191906000526020600020905b8154815290600101906020018083116115ac57829003601f168201915b505050505094508380546115dc9061354f565b80601f01602080910402602001604051908101604052809291908181526020018280546116089061354f565b80156116555780601f1061162a57610100808354040283529160200191611655565b820191906000526020600020905b81548152906001019060200180831161163857829003601f168201915b505050505093508280546116689061354f565b80601f01602080910402602001604051908101604052809291908181526020018280546116949061354f565b80156116e15780601f106116b6576101008083540402835291602001916116e1565b820191906000526020600020905b8154815290600101906020018083116116c457829003601f168201915b505050505092509b509b509b509b509b509b509b509b509b509b509b505091939597999b90929496989a50565b60085481565b60008054906101000a900473ffffffffffffffffffffffffffffffffffffffff1681565b336000600160008373ffffffffffffffffffffffffffffffffffffffff1673ffffffffffffffffffffffffffffffffffffffff16815260200190815260200160002054905060016002600083815260200190815260200160002060050160019054906101000a900460ff1660ff1614806117fd575060008054906101000a900473ffffffffffffffffffffffffffffffffffffffff1673ffffffffffffffffffffffffffffffffffffffff168273ffffffffffffffffffffffffffffffffffffffff16145b61183c576040517f08c379a000000000000000000000000000000000000000000000000000000000815260040161183390613193565b60405180910390fd5b8260026000600160003373ffffffffffffffffffffffffffffffffffffffff1673ffffffffffffffffffffffffffffffffffffffff16815260200190815260200160002054815260200190815260200160002060060160008660ff1660ff16815260200190815260200160002060008282546118b89190613490565b925050819055507f58ab0fa9738b16119fb95a620cc4241ca5ca1e82da6f9d1a185b27c0e142f781338585426040516118f49493929190613132565b60405180910390a150505050565b60095481565b60056020528060005260406000206000915090508060000160009054906101000a900473ffffffffffffffffffffffffffffffffffffffff16908060010154908060020160009054906101000a900460ff16908060030154908060040154905085565b336000600160008373ffffffffffffffffffffffffffffffffffffffff1673ffffffffffffffffffffffffffffffffffffffff16815260200190815260200160002054905060016002600083815260200190815260200160002060050160019054906101000a900460ff1660ff161480611a30575060008054906101000a900473ffffffffffffffffffffffffffffffffffffffff1673ffffffffffffffffffffffffffffffffffffffff168273ffffffffffffffffffffffffffffffffffffffff16145b611a6f576040517f08c379a0000000000000000000000000000000000000000000000000000000008152600401611a6690613193565b60405180910390fd5b8260005b60008214611a9d57600a82611a889190613405565b91508080611a95906135ca565b915050611a73565b600a8160ff1614611ae3576040517f08c379a0000000000000000000000000000000000000000000000000000000008152600401611ada90613273565b60405180910390fd5b60008054906101000a900473ffffffffffffffffffffffffffffffffffffffff1673ffffffffffffffffffffffffffffffffffffffff168973ffffffffffffffffffffffffffffffffffffffff161415611b72576040517f08c379a0000000000000000000000000000000000000000000000000000000008152600401611b6990613293565b60405180910390fd5b600060026000600160008d73ffffffffffffffffffffffffffffffffffffffff1673ffffffffffffffffffffffffffffffffffffffff16815260200190815260200160002054815260200190815260200160002060050160009054906101000a900460ff1660ff1614611c1a576040517f08c379a0000000000000000000000000000000000000000000000000000000008152600401611c1190613213565b60405180910390fd5b60076000815480929190611c2d90613581565b9190505550600754600160003373ffffffffffffffffffffffffffffffffffffffff1673ffffffffffffffffffffffffffffffffffffffff1681526020019081526020016000208190555060006002600060075481526020019081526020016000209050600754600160008c73ffffffffffffffffffffffffffffffffffffffff1673ffffffffffffffffffffffffffffffffffffffff16815260200190815260200160002081905550898160000160006101000a81548173ffffffffffffffffffffffffffffffffffffffff021916908373ffffffffffffffffffffffffffffffffffffffff16021790555088816001019080519060200190611d32929190612638565b5087816002019080519060200190611d4b929190612638565b5086816003019080519060200190611d64929190612638565b5085816004018190555060018160050160006101000a81548160ff021916908360ff16021790555060018160050160016101000a81548160ff021916908360ff1602179055507f3d39b9dc3cc28f0852c205a5818a351f20e13393f499c9a7ce42faee19843ac38a8a604051611ddb929190612dfd565b60405180910390a150505050505050505050565b336000600160008373ffffffffffffffffffffffffffffffffffffffff1673ffffffffffffffffffffffffffffffffffffffff16815260200190815260200160002054905060016002600083815260200190815260200160002060050160019054906101000a900460ff1660ff161480611eb4575060008054906101000a900473ffffffffffffffffffffffffffffffffffffffff1673ffffffffffffffffffffffffffffffffffffffff168273ffffffffffffffffffffffffffffffffffffffff16145b611ef3576040517f08c379a0000000000000000000000000000000000000000000000000000000008152600401611eea90613193565b60405180910390fd5b6249d40060046000868152602001908152602001600020600901541015611f4f576040517f08c379a0000000000000000000000000000000000000000000000000000000008152600401611f46906131f3565b60405180910390fd5b8260046000868152602001908152602001600020600b0181905550600660008581526020019081526020016000208390806001815401808255809150506001900390600052602060002001600090919091909150557f39720784026078964ce352e51d42f93a54835275e1c08a441335b42cc75e3dde844285604051611fd7939291906132ce565b60405180910390a150505050565b600060608060606000806000336000600160008373ffffffffffffffffffffffffffffffffffffffff1673ffffffffffffffffffffffffffffffffffffffff16815260200190815260200160002054905060016002600083815260200190815260200160002060050160019054906101000a900460ff1660ff1614806120b6575060008054906101000a900473ffffffffffffffffffffffffffffffffffffffff1673ffffffffffffffffffffffffffffffffffffffff168273ffffffffffffffffffffffffffffffffffffffff16145b6120f5576040517f08c379a00000000000000000000000000000000000000000000000000000000081526004016120ec90613193565b60405180910390fd5b6000600160008c73ffffffffffffffffffffffffffffffffffffffff1673ffffffffffffffffffffffffffffffffffffffff1681526020019081526020016000205490506002600082815260200190815260200160002060000160009054906101000a900473ffffffffffffffffffffffffffffffffffffffff1660026000838152602001908152602001600020600101600260008481526020019081526020016000206002016002600085815260200190815260200160002060030160026000868152602001908152602001600020600401546002600087815260200190815260200160002060050160009054906101000a900460ff166002600088815260200190815260200160002060050160019054906101000a900460ff1685805461221d9061354f565b80601f01602080910402602001604051908101604052809291908181526020018280546122499061354f565b80156122965780601f1061226b57610100808354040283529160200191612296565b820191906000526020600020905b81548152906001019060200180831161227957829003601f168201915b505050505095508480546122a99061354f565b80601f01602080910402602001604051908101604052809291908181526020018280546122d59061354f565b80156123225780601f106122f757610100808354040283529160200191612322565b820191906000526020600020905b81548152906001019060200180831161230557829003601f168201915b505050505094508380546123359061354f565b80601f01602080910402602001604051908101604052809291908181526020018280546123619061354f565b80156123ae5780601f10612383576101008083540402835291602001916123ae565b820191906000526020600020905b81548152906001019060200180831161239157829003601f168201915b505050505093509950995099509950995099509950505050919395979092949650565b336000600160008373ffffffffffffffffffffffffffffffffffffffff1673ffffffffffffffffffffffffffffffffffffffff16815260200190815260200160002054905060016002600083815260200190815260200160002060050160019054906101000a900460ff1660ff161480612496575060008054906101000a900473ffffffffffffffffffffffffffffffffffffffff1673ffffffffffffffffffffffffffffffffffffffff168273ffffffffffffffffffffffffffffffffffffffff16145b6124d5576040517f08c379a00000000000000000000000000000000000000000000000000000000081526004016124cc90613193565b60405180910390fd5b8260026000600160003373ffffffffffffffffffffffffffffffffffffffff1673ffffffffffffffffffffffffffffffffffffffff16815260200190815260200160002054815260200190815260200160002060060160008660ff1660ff168152602001908152602001600020600082825461255191906133af565b925050819055507fdd0c10624eeca207b1edcc3075766f7620caf2b92812fabd9d320b3834d94e693385854260405161258d9493929190613132565b60405180910390a150505050565b604051806101000160405280600890602082028036833780820191505090505090565b604051806101800160405280600073ffffffffffffffffffffffffffffffffffffffff168152602001600081526020016060815260200160608152602001600081526020016000815260200160608152602001606081526020016060815260200160008152602001600060ff168152602001600081525090565b8280546126449061354f565b90600052602060002090601f01602090048101928261266657600085556126ad565b82601f1061267f57805160ff19168380011785556126ad565b828001600101855582156126ad579182015b828111156126ac578251825591602001919060010190612691565b5b5090506126ba91906126be565b5090565b5b808211156126d75760008160009055506001016126bf565b5090565b60006126ee6126e984613336565b613305565b90508281526020810184848401111561270657600080fd5b61271184828561350d565b509392505050565b600081359050612728816136c1565b92915050565b600082601f83011261273f57600080fd5b813561274f8482602086016126db565b91505092915050565b600081359050612767816136d8565b92915050565b60008135905061277c816136ef565b92915050565b60006020828403121561279457600080fd5b60006127a284828501612719565b91505092915050565b600080600080600060a086880312156127c357600080fd5b60006127d188828901612719565b955050602086013567ffffffffffffffff8111156127ee57600080fd5b6127fa8882890161272e565b945050604086013567ffffffffffffffff81111561281757600080fd5b6128238882890161272e565b935050606086013567ffffffffffffffff81111561284057600080fd5b61284c8882890161272e565b925050608061285d88828901612758565b9150509295509295909350565b60006020828403121561287c57600080fd5b600061288a84828501612758565b91505092915050565b60008060008060008060008060006101208a8c0312156128b257600080fd5b60006128c08c828d01612758565b99505060208a013567ffffffffffffffff8111156128dd57600080fd5b6128e98c828d0161272e565b98505060408a013567ffffffffffffffff81111561290657600080fd5b6129128c828d0161272e565b97505060606129238c828d01612758565b96505060806129348c828d01612758565b95505060a08a013567ffffffffffffffff81111561295157600080fd5b61295d8c828d0161272e565b94505060c08a013567ffffffffffffffff81111561297a57600080fd5b6129868c828d0161272e565b93505060e08a013567ffffffffffffffff8111156129a357600080fd5b6129af8c828d0161272e565b9250506101006129c18c828d01612758565b9150509295985092959850929598565b600080604083850312156129e457600080fd5b60006129f285828601612758565b9250506020612a0385828601612758565b9150509250929050565b600080600060608486031215612a2257600080fd5b6000612a3086828701612758565b9350506020612a418682870161276d565b9250506040612a5286828701612758565b9150509250925092565b60008060408385031215612a6f57600080fd5b6000612a7d8582860161276d565b9250506020612a8e85828601612758565b9150509250929050565b6000612aa48383612db5565b60208301905092915050565b612ab9816134c4565b82525050565b612ac881613370565b612ad28184613393565b9250612add82613366565b8060005b83811015612b0e578151612af58782612a98565b9650612b0083613386565b925050600181019050612ae1565b505050505050565b6000612b218261337b565b612b2b818561339e565b9350612b3b81856020860161351c565b612b44816136b0565b840191505092915050565b6000612b5c60168361339e565b91507f596f7520646f6e27742068617665206163636573732e000000000000000000006000830152602082019050919050565b6000612b9c600e8361339e565b91507f53746f636b20697320656d7074790000000000000000000000000000000000006000830152602082019050919050565b6000612bdc60128361339e565b91507f416c7265616479207265676973746572656400000000000000000000000000006000830152602082019050919050565b6000612c1c60138361339e565b91507f5761697420666f7220736f6d6520646179732e000000000000000000000000006000830152602082019050919050565b6000612c5c601f8361339e565b91507f426c6f6f6462616e6b20697320616c72656164792072656769737465726564006000830152602082019050919050565b6000612c9c601a8361339e565b91507f4167652069732073686f756c642062652032206469676974732e0000000000006000830152602082019050919050565b6000612cdc60138361339e565b91507f426c6f6f6462616e6b206e6f74206578697374000000000000000000000000006000830152602082019050919050565b6000612d1c601f8361339e565b91507f436f6e74616374204e6f2073686f756c64206265203130206469676974732e006000830152602082019050919050565b6000612d5c60258361339e565b91507f4f776e65723a596f752063616e7420626520726567697374657220617320612060008301527f62616e6b2e0000000000000000000000000000000000000000000000000000006020830152604082019050919050565b612dbe816134f6565b82525050565b612dcd816134f6565b82525050565b612ddc81613500565b82525050565b6000602082019050612df76000830184612ab0565b92915050565b6000604082019050612e126000830185612ab0565b8181036020830152612e248184612b16565b90509392505050565b600060e082019050612e42600083018a612ab0565b8181036020830152612e548189612b16565b90508181036040830152612e688188612b16565b90508181036060830152612e7c8187612b16565b9050612e8b6080830186612dc4565b612e9860a0830185612dd3565b612ea560c0830184612dd3565b98975050505050505050565b600061016082019050612ec7600083018e612ab0565b612ed4602083018d612dc4565b8181036040830152612ee6818c612b16565b90508181036060830152612efa818b612b16565b9050612f09608083018a612dc4565b612f1660a0830189612dc4565b81810360c0830152612f288188612b16565b905081810360e0830152612f3c8187612b16565b9050818103610100830152612f518186612b16565b9050612f61610120830185612dc4565b612f6f610140830184612dc4565b9c9b505050505050505050505050565b600061018082019050612f95600083018f612ab0565b612fa2602083018e612dc4565b8181036040830152612fb4818d612b16565b90508181036060830152612fc8818c612b16565b9050612fd7608083018b612dc4565b612fe460a083018a612dc4565b81810360c0830152612ff68189612b16565b905081810360e083015261300a8188612b16565b905081810361010083015261301f8187612b16565b905061302f610120830186612dc4565b61303d610140830185612dd3565b61304b610160830184612dc4565b9d9c50505050505050505050505050565b60006080820190506130716000830187612ab0565b61307e6020830186612dc4565b81810360408301526130908185612b16565b905061309f6060830184612dc4565b95945050505050565b60006060820190506130bd6000830186612ab0565b6130ca6020830185612dc4565b6130d76040830184612dc4565b949350505050565b600060a0820190506130f46000830188612ab0565b6131016020830187612dc4565b61310e6040830186612dd3565b61311b6060830185612dc4565b6131286080830184612dc4565b9695505050505050565b60006080820190506131476000830187612ab0565b6131546020830186612dd3565b6131616040830185612dc4565b61316e6060830184612dc4565b95945050505050565b60006101008201905061318d6000830184612abf565b92915050565b600060208201905081810360008301526131ac81612b4f565b9050919050565b600060208201905081810360008301526131cc81612b8f565b9050919050565b600060208201905081810360008301526131ec81612bcf565b9050919050565b6000602082019050818103600083015261320c81612c0f565b9050919050565b6000602082019050818103600083015261322c81612c4f565b9050919050565b6000602082019050818103600083015261324c81612c8f565b9050919050565b6000602082019050818103600083015261326c81612ccf565b9050919050565b6000602082019050818103600083015261328c81612d0f565b9050919050565b600060208201905081810360008301526132ac81612d4f565b9050919050565b60006020820190506132c86000830184612dc4565b92915050565b60006060820190506132e36000830186612dc4565b6132f06020830185612dc4565b6132fd6040830184612dc4565b949350505050565b6000604051905081810181811067ffffffffffffffff8211171561332c5761332b613681565b5b8060405250919050565b600067ffffffffffffffff82111561335157613350613681565b5b601f19601f8301169050602081019050919050565b6000819050919050565b600060089050919050565b600081519050919050565b6000602082019050919050565b600081905092915050565b600082825260208201905092915050565b60006133ba826134f6565b91506133c5836134f6565b9250827fffffffffffffffffffffffffffffffffffffffffffffffffffffffffffffffff038211156133fa576133f96135f4565b5b828201905092915050565b6000613410826134f6565b915061341b836134f6565b92508261342b5761342a613623565b5b828204905092915050565b6000613441826134f6565b915061344c836134f6565b9250817fffffffffffffffffffffffffffffffffffffffffffffffffffffffffffffffff0483118215151615613485576134846135f4565b5b828202905092915050565b600061349b826134f6565b91506134a6836134f6565b9250828210156134b9576134b86135f4565b5b828203905092915050565b60006134cf826134d6565b9050919050565b600073ffffffffffffffffffffffffffffffffffffffff82169050919050565b6000819050919050565b600060ff82169050919050565b82818337600083830152505050565b60005b8381101561353a57808201518184015260208101905061351f565b83811115613549576000848401525b50505050565b6000600282049050600182168061356757607f821691505b6020821081141561357b5761357a613652565b5b50919050565b600061358c826134f6565b91507fffffffffffffffffffffffffffffffffffffffffffffffffffffffffffffffff8214156135bf576135be6135f4565b5b600182019050919050565b60006135d582613500565b915060ff8214156135e9576135e86135f4565b5b600182019050919050565b7f4e487b7100000000000000000000000000000000000000000000000000000000600052601160045260246000fd5b7f4e487b7100000000000000000000000000000000000000000000000000000000600052601260045260246000fd5b7f4e487b7100000000000000000000000000000000000000000000000000000000600052602260045260246000fd5b7f4e487b7100000000000000000000000000000000000000000000000000000000600052604160045260246000fd5b6000601f19601f8301169050919050565b6136ca816134c4565b81146136d557600080fd5b50565b6136e1816134f6565b81146136ec57600080fd5b50565b6136f881613500565b811461370357600080fd5b5056fea2646970667358221220814e451b04b472a9986be565759644a68258ac0784792fc59f582bb0fa23311f64736f6c63430008000033",
  "immutableReferences": {},
  "source": "pragma solidity 0.8.0;\r\n \r\n contract BloodBank {\r\n    address public owner;\r\n\r\n    enum BloodGroup {\r\n        A_positive, //0\r\n        A_negative, //1\r\n        B_positive, //2\r\n        B_negative, //3\r\n        AB_positive, //4\r\n        AB_negative, //5\r\n        O_positive, //6\r\n        O_negative //7\r\n    }\r\n\r\n    struct Requests {\r\n        address _requester;\r\n        uint256 _cId;\r\n        uint8 _bloodgrp;\r\n        uint256 _qty;\r\n        uint256 isGranted;\r\n    }\r\n\r\n    struct Bloodbank {\r\n        address add;\r\n        string name;\r\n        string city;\r\n        string email;\r\n        uint256 contact;\r\n        uint8 isBank;\r\n        uint8 isadmin;\r\n        mapping(uint8 => uint256) stock;\r\n    }\r\n\r\n    struct Donor {\r\n        address add;\r\n        uint256 cId;\r\n        string name;\r\n        string city;\r\n        uint256 contact;\r\n        uint256 age;\r\n        string gender;\r\n        string bloodgrp;\r\n        string cname;\r\n        uint256 recentDonation;\r\n        uint8 isDonor;\r\n        uint256 _slot;\r\n    }\r\n\r\n    //Mappings\r\n    mapping(address => uint256) public bankId;\r\n    mapping(uint256 => Bloodbank) public banks;\r\n    mapping(address => uint256) public donorId;\r\n    mapping(uint256 => Donor) public donors;\r\n    mapping(uint256 => Requests) public request;\r\n    mapping(uint256 => uint256[]) public slot;\r\n\r\n    //events\r\n    event Bookslot(uint256 _dId, uint256 _time, uint256 _slottime);\r\n    event DonorRegistered(\r\n        address _donor,\r\n        uint256 _center,\r\n        string _bloodgrp,\r\n        uint256 _recentDonation\r\n    );\r\n    event BankRegistered(address _bank, string _centerName);\r\n    event BloodRequest(\r\n        address _requester,\r\n        uint256 _cId,\r\n        uint8 _bloodgrp,\r\n        uint256 _units,\r\n        uint256 _time\r\n    );\r\n    event RequestGranted(address _admin, uint256 _requesterid, uint256 _time);\r\n    event StockIncreased(\r\n        address _center,\r\n        uint8 _bloodgrp,\r\n        uint256 _qty,\r\n        uint256 _time\r\n    );\r\n    event StockDecreased(\r\n        address _center,\r\n        uint8 _bloodgrp,\r\n        uint256 _qty,\r\n        uint256 _time\r\n    );\r\n\r\n    //counters & arrays\r\n    uint256 public counterB;\r\n    uint256 public counterD;\r\n    uint256 public counterR;\r\n    uint256[8] Showstock;\r\n    uint256[] timestamp;\r\n\r\n    constructor() {\r\n        owner = msg.sender;\r\n    }\r\n\r\n    //admin check\r\n    modifier onlyAdmin(address _add) {\r\n        uint256 id = bankId[_add];\r\n        require(\r\n            banks[id].isadmin == 1 || _add == owner,\r\n            \"You don't have access.\"\r\n        );\r\n        _;\r\n    }\r\n    \r\n     modifier validContact(uint _contact)  {\r\n    uint8 digits = 0;\r\n    while (_contact != 0) {\r\n        _contact /= 10;\r\n        digits++;\r\n    }\r\n    require(digits==10 ,\"Contact No should be 10 digits.\");\r\n    _;\r\n   }\r\n    modifier validAge(uint _age)  {\r\n    uint8 digits = 0;\r\n    while (_age != 0) {\r\n        _age /= 10;\r\n        digits++;\r\n    }\r\n    require(digits==2 ,\"Age is should be 2 digits.\");\r\n    _;\r\n   }\r\n\r\n    //Add new Bloodbank\r\n    function NewBank(\r\n        address _add,\r\n        string memory _name,\r\n        string memory _city,\r\n        string memory _email,\r\n        uint256 _contact\r\n    ) public onlyAdmin(msg.sender) validContact(_contact)  {\r\n        require(_add != owner, \"Owner:You cant be register as a bank.\");\r\n        require(\r\n            banks[bankId[_add]].isBank == 0,\r\n            \"Bloodbank is already registered\"\r\n        );\r\n        \r\n        counterB++;\r\n        bankId[msg.sender] = counterB;\r\n        Bloodbank storage bank = banks[counterB];\r\n        bankId[_add] = counterB;\r\n        bank.add = _add;\r\n        bank.name = _name;\r\n        bank.city = _city;\r\n        bank.email = _email;\r\n        bank.contact = _contact;\r\n        bank.isBank = 1;\r\n        bank.isadmin = 1;\r\n        emit BankRegistered(_add, _name);\r\n    }\r\n\r\n    //View Bloodbank's Data\r\n    function ViewBank(address _add)\r\n        public\r\n        view\r\n        onlyAdmin(msg.sender)\r\n        returns (\r\n            address,\r\n            string memory,\r\n            string memory,\r\n            string memory,\r\n            uint256,\r\n            uint8,\r\n            uint8\r\n        )\r\n    {\r\n        uint256 id = bankId[_add];\r\n        return (\r\n            banks[id].add,\r\n            banks[id].name,\r\n            banks[id].city,\r\n            banks[id].email,\r\n            banks[id].contact,\r\n            banks[id].isBank,\r\n            banks[id].isadmin\r\n        );\r\n    }\r\n\r\n    //After registration of donor, admin will book slot for donor if recentDonation condition fulfills\r\n    function BookSlot(uint256 _dId, uint256 _slottime)\r\n        public\r\n        onlyAdmin(msg.sender)\r\n    {\r\n        //check the recentDonation of donor is 56 days, if valid then only send slot\r\n        require(\r\n            donors[_dId].recentDonation >= (56 * 1 days),\r\n            \"Wait for some days.\"\r\n        );\r\n        donors[_dId]._slot = _slottime;\r\n        slot[_dId].push(_slottime);\r\n        emit Bookslot(_dId, block.timestamp, _slottime);\r\n    }\r\n\r\n    //If stock is available admin will grant request\r\n    function GrantRequest(uint256 _id) public onlyAdmin(msg.sender) {\r\n        //Admin will grant the blood request  if stock available\r\n        uint8 grp = request[_id]._bloodgrp;\r\n        require(banks[_id].stock[grp] != 0, \"Stock is empty\");\r\n        request[_id].isGranted = 1;\r\n        emit RequestGranted(msg.sender, _id, block.timestamp);\r\n    }\r\n\r\n    //Quantity minus\r\n    function ReduceStock(\r\n        uint8 _bloodgrp,\r\n        uint256 _qty\r\n    ) public onlyAdmin(msg.sender) {\r\n        banks[bankId[msg.sender]].stock[_bloodgrp] -= _qty;\r\n        emit StockDecreased(msg.sender, _bloodgrp, _qty, block.timestamp);\r\n    }\r\n\r\n    //Quantity plus\r\n    function IncreaseStock(\r\n        uint8 _bloodgrp,\r\n        uint256 _qty\r\n    ) public onlyAdmin(msg.sender) {\r\n        banks[bankId[msg.sender]].stock[_bloodgrp] += _qty;\r\n        emit StockIncreased(msg.sender, _bloodgrp, _qty, block.timestamp);\r\n    }\r\n\r\n    //Register Donor\r\n    function RegisterDonor(\r\n        uint256 _cId,\r\n        string memory _name,\r\n        string memory _city,\r\n        uint256 _contact,\r\n        uint256 _age,\r\n        string memory _gender,\r\n        string memory _bloodgrp,\r\n        string memory _cname,\r\n        uint256 _recentDonation\r\n    ) public validContact(_contact) validAge(_age)  {\r\n        require(donors[donorId[msg.sender]].isDonor == 0, \"Already registered\");\r\n        require(banks[_cId].isBank == 1, \"Bloodbank not exist\");\r\n        counterD++;\r\n        Donor memory donor;\r\n        donorId[msg.sender] = counterD;\r\n        donor.add = msg.sender;\r\n        donor.cId = _cId;\r\n        donor.name = _name;\r\n        donor.city = _city;\r\n        donor.contact = _contact;\r\n        donor.age = _age;\r\n        donor.gender = _gender;\r\n        donor.bloodgrp = _bloodgrp;\r\n        donor.cname = _cname;\r\n        donor.recentDonation = (_recentDonation * 1 days);\r\n        donor.isDonor = 1;\r\n        donors[counterD] = donor;\r\n        emit DonorRegistered(msg.sender, _cId, _bloodgrp, _recentDonation);\r\n    }\r\n\r\n    // View Donor's Data\r\n    function ViewDonor(address _add)\r\n        public\r\n        view\r\n        returns (\r\n            address,\r\n            uint256,\r\n            string memory,\r\n            string memory,\r\n            uint256,\r\n            uint256,\r\n            string memory,\r\n            string memory,\r\n            string memory,\r\n            uint256,\r\n            uint256\r\n        )\r\n    {\r\n        uint256 id = donorId[_add];\r\n        return (\r\n            donors[id].add,\r\n            donors[id].cId,\r\n            donors[id].name,\r\n            donors[id].city,\r\n            donors[id].contact,\r\n            donors[id].age,\r\n            donors[id].gender,\r\n            donors[id].bloodgrp,\r\n            donors[id].cname,\r\n            donors[id].recentDonation,\r\n            donors[id]._slot\r\n        );\r\n    }\r\n\r\n    //Request for blood to particular center\r\n    function RequestBlood(\r\n        uint256 _cId,\r\n        uint8 _bloodgrp,\r\n        uint256 _units\r\n    ) public {\r\n        counterR++;\r\n        Requests memory req = Requests(msg.sender, _cId, _bloodgrp, _units, 0);\r\n        request[counterR] = req;\r\n        emit BloodRequest(msg.sender, _cId, _bloodgrp, _units, block.timestamp);\r\n    }\r\n\r\n    //Stock availability\r\n    function viewStock(address _add) public view returns (uint256[8] memory) {\r\n        uint256[8] memory s;\r\n        for (uint8 i; i < 8; i++) {\r\n            s[i] = banks[bankId[_add]].stock[i];\r\n        }\r\n        return s;\r\n    }\r\n   \r\n}\r\n",
  "sourcePath": "C:/Users/Acer/Desktop/Contract-1/contracts/Bloodbank.sol",
  "compiler": {
    "name": "solc",
    "version": "0.8.0+commit.c7dfd78e.Emscripten.clang"
  },
  "schemaVersion": "3.4.0",
  "updatedAt": "2021-07-02T17:13:18.176Z",
  "devdoc": {
    "kind": "dev",
    "methods": {},
    "version": 1
  },
  "userdoc": {
    "kind": "user",
    "methods": {},
    "version": 1
  }
}