{
  "contractName": "BloodBank",
  "abi": [
    {
      "inputs": [],
      "stateMutability": "nonpayable",
      "type": "constructor"
    },
    {
      "anonymous": false,
      "inputs": [
        {
          "indexed": false,
          "internalType": "address",
          "name": "_bank",
          "type": "address"
        },
        {
          "indexed": false,
          "internalType": "uint256",
          "name": "_cId",
          "type": "uint256"
        },
        {
          "indexed": false,
          "internalType": "string",
          "name": "_centerName",
          "type": "string"
        }
      ],
      "name": "BankRegistered",
      "type": "event"
    },
    {
      "anonymous": false,
      "inputs": [
        {
          "indexed": false,
          "internalType": "address",
          "name": "_requester",
          "type": "address"
        },
        {
          "indexed": false,
          "internalType": "uint256",
          "name": "_cId",
          "type": "uint256"
        },
        {
          "indexed": false,
          "internalType": "uint8",
          "name": "_bloodgrp",
          "type": "uint8"
        },
        {
          "indexed": false,
          "internalType": "uint256",
          "name": "_units",
          "type": "uint256"
        },
        {
          "indexed": false,
          "internalType": "uint256",
          "name": "_time",
          "type": "uint256"
        }
      ],
      "name": "BloodRequest",
      "type": "event"
    },
    {
      "anonymous": false,
      "inputs": [
        {
          "indexed": false,
          "internalType": "uint256",
          "name": "_dId",
          "type": "uint256"
        },
        {
          "indexed": false,
          "internalType": "uint256",
          "name": "_time",
          "type": "uint256"
        },
        {
          "indexed": false,
          "internalType": "uint256",
          "name": "_slottime",
          "type": "uint256"
        }
      ],
      "name": "Bookslot",
      "type": "event"
    },
    {
      "anonymous": false,
      "inputs": [
        {
          "indexed": false,
          "internalType": "address",
          "name": "_donor",
          "type": "address"
        },
        {
          "indexed": false,
          "internalType": "uint256",
          "name": "_center",
          "type": "uint256"
        },
        {
          "indexed": false,
          "internalType": "string",
          "name": "_bloodgrp",
          "type": "string"
        },
        {
          "indexed": false,
          "internalType": "uint256",
          "name": "_recentDonation",
          "type": "uint256"
        }
      ],
      "name": "DonorRegistered",
      "type": "event"
    },
    {
      "anonymous": false,
      "inputs": [
        {
          "indexed": false,
          "internalType": "address",
          "name": "_admin",
          "type": "address"
        },
        {
          "indexed": false,
          "internalType": "uint256",
          "name": "_requesterid",
          "type": "uint256"
        },
        {
          "indexed": false,
          "internalType": "uint256",
          "name": "_time",
          "type": "uint256"
        }
      ],
      "name": "RequestGranted",
      "type": "event"
    },
    {
      "anonymous": false,
      "inputs": [
        {
          "indexed": false,
          "internalType": "address",
          "name": "_center",
          "type": "address"
        },
        {
          "indexed": false,
          "internalType": "uint8",
          "name": "_bloodgrp",
          "type": "uint8"
        },
        {
          "indexed": false,
          "internalType": "uint256",
          "name": "_qty",
          "type": "uint256"
        },
        {
          "indexed": false,
          "internalType": "uint256",
          "name": "_time",
          "type": "uint256"
        }
      ],
      "name": "StockDecreased",
      "type": "event"
    },
    {
      "anonymous": false,
      "inputs": [
        {
          "indexed": false,
          "internalType": "address",
          "name": "_center",
          "type": "address"
        },
        {
          "indexed": false,
          "internalType": "uint8",
          "name": "_bloodgrp",
          "type": "uint8"
        },
        {
          "indexed": false,
          "internalType": "uint256",
          "name": "_qty",
          "type": "uint256"
        },
        {
          "indexed": false,
          "internalType": "uint256",
          "name": "_time",
          "type": "uint256"
        }
      ],
      "name": "StockIncreased",
      "type": "event"
    },
    {
      "inputs": [
        {
          "internalType": "address",
          "name": "",
          "type": "address"
        }
      ],
      "name": "bankId",
      "outputs": [
        {
          "internalType": "uint256",
          "name": "",
          "type": "uint256"
        }
      ],
      "stateMutability": "view",
      "type": "function"
    },
    {
      "inputs": [
        {
          "internalType": "uint256",
          "name": "",
          "type": "uint256"
        }
      ],
      "name": "banks",
      "outputs": [
        {
          "internalType": "address",
          "name": "add",
          "type": "address"
        },
        {
          "internalType": "string",
          "name": "name",
          "type": "string"
        },
        {
          "internalType": "string",
          "name": "city",
          "type": "string"
        },
        {
          "internalType": "string",
          "name": "email",
          "type": "string"
        },
        {
          "internalType": "uint256",
          "name": "contact",
          "type": "uint256"
        },
        {
          "internalType": "uint8",
          "name": "isBank",
          "type": "uint8"
        },
        {
          "internalType": "uint8",
          "name": "isadmin",
          "type": "uint8"
        }
      ],
      "stateMutability": "view",
      "type": "function"
    },
    {
      "inputs": [],
      "name": "counterB",
      "outputs": [
        {
          "internalType": "uint256",
          "name": "",
          "type": "uint256"
        }
      ],
      "stateMutability": "view",
      "type": "function"
    },
    {
      "inputs": [],
      "name": "counterD",
      "outputs": [
        {
          "internalType": "uint256",
          "name": "",
          "type": "uint256"
        }
      ],
      "stateMutability": "view",
      "type": "function"
    },
    {
      "inputs": [],
      "name": "counterR",
      "outputs": [
        {
          "internalType": "uint256",
          "name": "",
          "type": "uint256"
        }
      ],
      "stateMutability": "view",
      "type": "function"
    },
    {
      "inputs": [
        {
          "internalType": "address",
          "name": "",
          "type": "address"
        }
      ],
      "name": "donorId",
      "outputs": [
        {
          "internalType": "uint256",
          "name": "",
          "type": "uint256"
        }
      ],
      "stateMutability": "view",
      "type": "function"
    },
    {
      "inputs": [
        {
          "internalType": "uint256",
          "name": "",
          "type": "uint256"
        }
      ],
      "name": "donors",
      "outputs": [
        {
          "internalType": "address",
          "name": "add",
          "type": "address"
        },
        {
          "internalType": "uint256",
          "name": "cId",
          "type": "uint256"
        },
        {
          "internalType": "string",
          "name": "name",
          "type": "string"
        },
        {
          "internalType": "string",
          "name": "city",
          "type": "string"
        },
        {
          "internalType": "uint256",
          "name": "contact",
          "type": "uint256"
        },
        {
          "internalType": "uint256",
          "name": "age",
          "type": "uint256"
        },
        {
          "internalType": "string",
          "name": "gender",
          "type": "string"
        },
        {
          "internalType": "string",
          "name": "bloodgrp",
          "type": "string"
        },
        {
          "internalType": "string",
          "name": "cname",
          "type": "string"
        },
        {
          "internalType": "uint256",
          "name": "recentDonation",
          "type": "uint256"
        },
        {
          "internalType": "uint8",
          "name": "isDonor",
          "type": "uint8"
        },
        {
          "internalType": "uint256",
          "name": "_slot",
          "type": "uint256"
        }
      ],
      "stateMutability": "view",
      "type": "function"
    },
    {
      "inputs": [],
      "name": "owner",
      "outputs": [
        {
          "internalType": "address",
          "name": "",
          "type": "address"
        }
      ],
      "stateMutability": "view",
      "type": "function"
    },
    {
      "inputs": [
        {
          "internalType": "uint256",
          "name": "",
          "type": "uint256"
        }
      ],
      "name": "request",
      "outputs": [
        {
          "internalType": "address",
          "name": "_requester",
          "type": "address"
        },
        {
          "internalType": "uint256",
          "name": "_cId",
          "type": "uint256"
        },
        {
          "internalType": "uint8",
          "name": "_bloodgrp",
          "type": "uint8"
        },
        {
          "internalType": "uint256",
          "name": "_qty",
          "type": "uint256"
        },
        {
          "internalType": "uint8",
          "name": "isRequest",
          "type": "uint8"
        },
        {
          "internalType": "uint256",
          "name": "isGranted",
          "type": "uint256"
        }
      ],
      "stateMutability": "view",
      "type": "function"
    },
    {
      "inputs": [
        {
          "internalType": "uint256",
          "name": "",
          "type": "uint256"
        },
        {
          "internalType": "uint256",
          "name": "",
          "type": "uint256"
        }
      ],
      "name": "slot",
      "outputs": [
        {
          "internalType": "uint256",
          "name": "",
          "type": "uint256"
        }
      ],
      "stateMutability": "view",
      "type": "function"
    },
    {
      "inputs": [
        {
          "internalType": "address",
          "name": "_add",
          "type": "address"
        },
        {
          "internalType": "string",
          "name": "_name",
          "type": "string"
        },
        {
          "internalType": "string",
          "name": "_city",
          "type": "string"
        },
        {
          "internalType": "string",
          "name": "_email",
          "type": "string"
        },
        {
          "internalType": "uint256",
          "name": "_contact",
          "type": "uint256"
        }
      ],
      "name": "NewBank",
      "outputs": [],
      "stateMutability": "nonpayable",
      "type": "function"
    },
    {
      "inputs": [
        {
          "internalType": "address",
          "name": "_add",
          "type": "address"
        }
      ],
      "name": "ViewBank",
      "outputs": [
        {
          "internalType": "address",
          "name": "",
          "type": "address"
        },
        {
          "internalType": "string",
          "name": "",
          "type": "string"
        },
        {
          "internalType": "string",
          "name": "",
          "type": "string"
        },
        {
          "internalType": "string",
          "name": "",
          "type": "string"
        },
        {
          "internalType": "uint256",
          "name": "",
          "type": "uint256"
        },
        {
          "internalType": "uint8",
          "name": "",
          "type": "uint8"
        },
        {
          "internalType": "uint8",
          "name": "",
          "type": "uint8"
        }
      ],
      "stateMutability": "view",
      "type": "function"
    },
    {
      "inputs": [
        {
          "internalType": "uint256",
          "name": "_dId",
          "type": "uint256"
        },
        {
          "internalType": "uint256",
          "name": "_slottime",
          "type": "uint256"
        }
      ],
      "name": "BookSlot",
      "outputs": [],
      "stateMutability": "nonpayable",
      "type": "function"
    },
    {
      "inputs": [
        {
          "internalType": "uint256",
          "name": "_id",
          "type": "uint256"
        }
      ],
      "name": "GrantRequest",
      "outputs": [],
      "stateMutability": "nonpayable",
      "type": "function"
    },
    {
      "inputs": [
        {
          "internalType": "uint8",
          "name": "_bloodgrp",
          "type": "uint8"
        },
        {
          "internalType": "uint256",
          "name": "_qty",
          "type": "uint256"
        }
      ],
      "name": "ReduceStock",
      "outputs": [],
      "stateMutability": "nonpayable",
      "type": "function"
    },
    {
      "inputs": [
        {
          "internalType": "uint8",
          "name": "_bloodgrp",
          "type": "uint8"
        },
        {
          "internalType": "uint256",
          "name": "_qty",
          "type": "uint256"
        }
      ],
      "name": "IncreaseStock",
      "outputs": [],
      "stateMutability": "nonpayable",
      "type": "function"
    },
    {
      "inputs": [
        {
          "internalType": "uint256",
          "name": "_cId",
          "type": "uint256"
        },
        {
          "internalType": "string",
          "name": "_name",
          "type": "string"
        },
        {
          "internalType": "string",
          "name": "_city",
          "type": "string"
        },
        {
          "internalType": "uint256",
          "name": "_contact",
          "type": "uint256"
        },
        {
          "internalType": "uint256",
          "name": "_age",
          "type": "uint256"
        },
        {
          "internalType": "string",
          "name": "_gender",
          "type": "string"
        },
        {
          "internalType": "string",
          "name": "_bloodgrp",
          "type": "string"
        },
        {
          "internalType": "string",
          "name": "_cname",
          "type": "string"
        },
        {
          "internalType": "uint256",
          "name": "_recentDonation",
          "type": "uint256"
        }
      ],
      "name": "RegisterDonor",
      "outputs": [],
      "stateMutability": "nonpayable",
      "type": "function"
    },
    {
      "inputs": [
        {
          "internalType": "address",
          "name": "_add",
          "type": "address"
        }
      ],
      "name": "ViewDonor",
      "outputs": [
        {
          "internalType": "address",
          "name": "",
          "type": "address"
        },
        {
          "internalType": "uint256",
          "name": "",
          "type": "uint256"
        },
        {
          "internalType": "string",
          "name": "",
          "type": "string"
        },
        {
          "internalType": "string",
          "name": "",
          "type": "string"
        },
        {
          "internalType": "uint256",
          "name": "",
          "type": "uint256"
        },
        {
          "internalType": "uint256",
          "name": "",
          "type": "uint256"
        },
        {
          "internalType": "string",
          "name": "",
          "type": "string"
        },
        {
          "internalType": "string",
          "name": "",
          "type": "string"
        },
        {
          "internalType": "string",
          "name": "",
          "type": "string"
        },
        {
          "internalType": "uint256",
          "name": "",
          "type": "uint256"
        },
        {
          "internalType": "uint256",
          "name": "",
          "type": "uint256"
        }
      ],
      "stateMutability": "view",
      "type": "function"
    },
    {
      "inputs": [
        {
          "internalType": "uint256",
          "name": "_cId",
          "type": "uint256"
        },
        {
          "internalType": "uint8",
          "name": "_bloodgrp",
          "type": "uint8"
        },
        {
          "internalType": "uint256",
          "name": "_units",
          "type": "uint256"
        }
      ],
      "name": "RequestBlood",
      "outputs": [],
      "stateMutability": "nonpayable",
      "type": "function"
    },
    {
      "inputs": [
        {
          "internalType": "address",
          "name": "_add",
          "type": "address"
        }
      ],
      "name": "viewStock",
      "outputs": [
        {
          "internalType": "uint256[8]",
          "name": "",
          "type": "uint256[8]"
        }
      ],
      "stateMutability": "view",
      "type": "function"
    }
  ],
  "bytecode": "0x608060405234801561001057600080fd5b50336000806101000a81548173ffffffffffffffffffffffffffffffffffffffff021916908373ffffffffffffffffffffffffffffffffffffffff160217905550613803806100606000396000f3fe608060405234801561001057600080fd5b506004361061012b5760003560e01c806382f91680116100ad578063d845a4b311610071578063d845a4b314610383578063dff2ae67146103b8578063e29efc6e146103d4578063e3854beb146103f0578063ec2cbb9f146104265761012b565b806382f91680146102d35780638d5432cb1461030d5780638da5cb5b1461032b578063a002aab714610349578063a20a7c53146103655761012b565b80634abfa163116100f45780634abfa1631461021257806356d1a6cd1461024d5780636bc83cbe146102695780637978862c14610285578063822c64f1146102a35761012b565b806285ae2b146101305780631004a40f14610166578063311fcd0b146101965780633b60766e146101b25780633cb96882146101e2575b600080fd5b61014a600480360381019061014591906128c2565b610442565b60405161015d9796959493929190612e55565b60405180910390f35b610180600480360381019061017b91906127da565b610656565b60405161018d919061323e565b60405180910390f35b6101b060048036038101906101ab91906128c2565b610744565b005b6101cc60048036038101906101c791906127da565b61093e565b6040516101d9919061337a565b60405180910390f35b6101fc60048036038101906101f791906127da565b610956565b604051610209919061337a565b60405180910390f35b61022c600480360381019061022791906128c2565b61096e565b6040516102449c9b9a99989796959493929190612fe5565b60405180910390f35b610267600480360381019061026291906128eb565b610ca3565b005b610283600480360381019061027e9190612a65565b611148565b005b61028d6112e6565b60405161029a919061337a565b60405180910390f35b6102bd60048036038101906102b89190612a29565b6112ec565b6040516102ca919061337a565b60405180910390f35b6102ed60048036038101906102e891906127da565b61131d565b6040516103049b9a99989796959493929190612f17565b60405180910390f35b61031561176c565b604051610322919061337a565b60405180910390f35b610333611772565b6040516103409190612e3a565b60405180910390f35b610363600480360381019061035e9190612ab4565b611796565b005b61036d611960565b60405161037a919061337a565b60405180910390f35b61039d600480360381019061039891906128c2565b611966565b6040516103af96959493929190613198565b60405180910390f35b6103d260048036038101906103cd9190612803565b6119dc565b005b6103ee60048036038101906103e99190612a29565b611e1e565b005b61040a600480360381019061040591906127da565b61203d565b60405161041d9796959493929190612e55565b60405180910390f35b610440600480360381019061043b9190612ab4565b612429565b005b60026020528060005260406000206000915090508060000160009054906101000a900473ffffffffffffffffffffffffffffffffffffffff169080600101805461048b90613616565b80601f01602080910402602001604051908101604052809291908181526020018280546104b790613616565b80156105045780601f106104d957610100808354040283529160200191610504565b820191906000526020600020905b8154815290600101906020018083116104e757829003601f168201915b50505050509080600201805461051990613616565b80601f016020809104026020016040519081016040528092919081815260200182805461054590613616565b80156105925780601f1061056757610100808354040283529160200191610592565b820191906000526020600020905b81548152906001019060200180831161057557829003601f168201915b5050505050908060030180546105a790613616565b80601f01602080910402602001604051908101604052809291908181526020018280546105d390613616565b80156106205780601f106105f557610100808354040283529160200191610620565b820191906000526020600020905b81548152906001019060200180831161060357829003601f168201915b5050505050908060040154908060050160009054906101000a900460ff16908060050160019054906101000a900460ff16905087565b61065e6125f3565b6106666125f3565b60005b60088160ff16101561073a5760026000600160008773ffffffffffffffffffffffffffffffffffffffff1673ffffffffffffffffffffffffffffffffffffffff16815260200190815260200160002054815260200190815260200160002060060160008260ff1660ff16815260200190815260200160002054828260ff166008811061071e577f4e487b7100000000000000000000000000000000000000000000000000000000600052603260045260246000fd5b602002018181525050808061073290613691565b915050610669565b5080915050919050565b336000600160008373ffffffffffffffffffffffffffffffffffffffff1673ffffffffffffffffffffffffffffffffffffffff16815260200190815260200160002054905060016002600083815260200190815260200160002060050160019054906101000a900460ff1660ff161480610809575060008054906101000a900473ffffffffffffffffffffffffffffffffffffffff1673ffffffffffffffffffffffffffffffffffffffff168273ffffffffffffffffffffffffffffffffffffffff16145b610848576040517f08c379a000000000000000000000000000000000000000000000000000000000815260040161083f9061331a565b60405180910390fd5b60006005600085815260200190815260200160002060020160009054906101000a900460ff16905060006002600086815260200190815260200160002060060160008360ff1660ff1681526020019081526020016000205414156108e1576040517f08c379a00000000000000000000000000000000000000000000000000000000081526004016108d89061327a565b60405180910390fd5b600160056000868152602001908152602001600020600501819055507f7418870c2082d7103c55c208cb3250760072890df4f5b4309ae876fbb674441b3385426040516109309392919061310e565b60405180910390a150505050565b60036020528060005260406000206000915090505481565b60016020528060005260406000206000915090505481565b60046020528060005260406000206000915090508060000160009054906101000a900473ffffffffffffffffffffffffffffffffffffffff16908060010154908060020180546109bd90613616565b80601f01602080910402602001604051908101604052809291908181526020018280546109e990613616565b8015610a365780601f10610a0b57610100808354040283529160200191610a36565b820191906000526020600020905b815481529060010190602001808311610a1957829003601f168201915b505050505090806003018054610a4b90613616565b80601f0160208091040260200160405190810160405280929190818152602001828054610a7790613616565b8015610ac45780601f10610a9957610100808354040283529160200191610ac4565b820191906000526020600020905b815481529060010190602001808311610aa757829003601f168201915b505050505090806004015490806005015490806006018054610ae590613616565b80601f0160208091040260200160405190810160405280929190818152602001828054610b1190613616565b8015610b5e5780601f10610b3357610100808354040283529160200191610b5e565b820191906000526020600020905b815481529060010190602001808311610b4157829003601f168201915b505050505090806007018054610b7390613616565b80601f0160208091040260200160405190810160405280929190818152602001828054610b9f90613616565b8015610bec5780601f10610bc157610100808354040283529160200191610bec565b820191906000526020600020905b815481529060010190602001808311610bcf57829003601f168201915b505050505090806008018054610c0190613616565b80601f0160208091040260200160405190810160405280929190818152602001828054610c2d90613616565b8015610c7a5780601f10610c4f57610100808354040283529160200191610c7a565b820191906000526020600020905b815481529060010190602001808311610c5d57829003601f168201915b50505050509080600901549080600a0160009054906101000a900460ff169080600b015490508c565b8560005b60008214610cd157600a82610cbc91906134cc565b91508080610cc990613691565b915050610ca7565b600a8160ff1614610d17576040517f08c379a0000000000000000000000000000000000000000000000000000000008152600401610d0e9061333a565b60405180910390fd5b8660005b60008214610d4557600a82610d3091906134cc565b91508080610d3d90613691565b915050610d1b565b60028160ff1614610d8b576040517f08c379a0000000000000000000000000000000000000000000000000000000008152600401610d829061325a565b60405180910390fd5b600060046000600360003373ffffffffffffffffffffffffffffffffffffffff1673ffffffffffffffffffffffffffffffffffffffff168152602001908152602001600020548152602001908152602001600020600a0160009054906101000a900460ff1660ff1614610e33576040517f08c379a0000000000000000000000000000000000000000000000000000000008152600401610e2a9061329a565b60405180910390fd5b6001600260008f815260200190815260200160002060050160009054906101000a900460ff1660ff1614610e9c576040517f08c379a0000000000000000000000000000000000000000000000000000000008152600401610e93906132fa565b60405180910390fd5b60086000815480929190610eaf90613648565b9190505550610ebc612616565b600854600360003373ffffffffffffffffffffffffffffffffffffffff1673ffffffffffffffffffffffffffffffffffffffff1681526020019081526020016000208190555033816000019073ffffffffffffffffffffffffffffffffffffffff16908173ffffffffffffffffffffffffffffffffffffffff16815250508d8160200181815250508c81604001819052508b81606001819052508a816080018181525050898160a0018181525050888160c00181905250878160e00181905250868161010001819052506201518086610f9591906134fd565b81610120018181525050600181610140019060ff16908160ff16815250508060046000600854815260200190815260200160002060008201518160000160006101000a81548173ffffffffffffffffffffffffffffffffffffffff021916908373ffffffffffffffffffffffffffffffffffffffff160217905550602082015181600101556040820151816002019080519060200190611036929190612690565b506060820151816003019080519060200190611053929190612690565b506080820151816004015560a0820151816005015560c0820151816006019080519060200190611084929190612690565b5060e08201518160070190805190602001906110a1929190612690565b506101008201518160080190805190602001906110bf929190612690565b50610120820151816009015561014082015181600a0160006101000a81548160ff021916908360ff16021790555061016082015181600b01559050507f672fe43beef440e05afbbb7e5f15c1cb230f6b8f483a2a9022867dd8c88e1f4b338f8a8960405161113094939291906130c2565b60405180910390a15050505050505050505050505050565b6009600081548092919061115b90613648565b919050555060006040518060c001604052803373ffffffffffffffffffffffffffffffffffffffff1681526020018581526020018460ff168152602001838152602001600060ff16815260200160008152509050600160056000600954815260200190815260200160002060040160006101000a81548160ff021916908360ff1602179055508060056000600954815260200190815260200160002060008201518160000160006101000a81548173ffffffffffffffffffffffffffffffffffffffff021916908373ffffffffffffffffffffffffffffffffffffffff1602179055506020820151816001015560408201518160020160006101000a81548160ff021916908360ff1602179055506060820151816003015560808201518160040160006101000a81548160ff021916908360ff16021790555060a082015181600501559050507f70b98257fe1bb6abb91d42af7aba192805756c16caf59ca3865da21149f509d333858585426040516112d8959493929190613145565b60405180910390a150505050565b60075481565b6006602052816000526040600020818154811061130857600080fd5b90600052602060002001600091509150505481565b60008060608060008060608060606000806000600360008e73ffffffffffffffffffffffffffffffffffffffff1673ffffffffffffffffffffffffffffffffffffffff1681526020019081526020016000205490506004600082815260200190815260200160002060000160009054906101000a900473ffffffffffffffffffffffffffffffffffffffff1660046000838152602001908152602001600020600101546004600084815260200190815260200160002060020160046000858152602001908152602001600020600301600460008681526020019081526020016000206004015460046000878152602001908152602001600020600501546004600088815260200190815260200160002060060160046000898152602001908152602001600020600701600460008a8152602001908152602001600020600801600460008b815260200190815260200160002060090154600460008c8152602001908152602001600020600b015488805461149690613616565b80601f01602080910402602001604051908101604052809291908181526020018280546114c290613616565b801561150f5780601f106114e45761010080835404028352916020019161150f565b820191906000526020600020905b8154815290600101906020018083116114f257829003601f168201915b5050505050985087805461152290613616565b80601f016020809104026020016040519081016040528092919081815260200182805461154e90613616565b801561159b5780601f106115705761010080835404028352916020019161159b565b820191906000526020600020905b81548152906001019060200180831161157e57829003601f168201915b505050505097508480546115ae90613616565b80601f01602080910402602001604051908101604052809291908181526020018280546115da90613616565b80156116275780601f106115fc57610100808354040283529160200191611627565b820191906000526020600020905b81548152906001019060200180831161160a57829003601f168201915b5050505050945083805461163a90613616565b80601f016020809104026020016040519081016040528092919081815260200182805461166690613616565b80156116b35780601f10611688576101008083540402835291602001916116b3565b820191906000526020600020905b81548152906001019060200180831161169657829003601f168201915b505050505093508280546116c690613616565b80601f01602080910402602001604051908101604052809291908181526020018280546116f290613616565b801561173f5780601f106117145761010080835404028352916020019161173f565b820191906000526020600020905b81548152906001019060200180831161172257829003601f168201915b505050505092509b509b509b509b509b509b509b509b509b509b509b505091939597999b90929496989a50565b60085481565b60008054906101000a900473ffffffffffffffffffffffffffffffffffffffff1681565b336000600160008373ffffffffffffffffffffffffffffffffffffffff1673ffffffffffffffffffffffffffffffffffffffff16815260200190815260200160002054905060016002600083815260200190815260200160002060050160019054906101000a900460ff1660ff16148061185b575060008054906101000a900473ffffffffffffffffffffffffffffffffffffffff1673ffffffffffffffffffffffffffffffffffffffff168273ffffffffffffffffffffffffffffffffffffffff16145b61189a576040517f08c379a00000000000000000000000000000000000000000000000000000000081526004016118919061331a565b60405180910390fd5b8260026000600160003373ffffffffffffffffffffffffffffffffffffffff1673ffffffffffffffffffffffffffffffffffffffff16815260200190815260200160002054815260200190815260200160002060060160008660ff1660ff16815260200190815260200160002060008282546119169190613557565b925050819055507f58ab0fa9738b16119fb95a620cc4241ca5ca1e82da6f9d1a185b27c0e142f7813385854260405161195294939291906131f9565b60405180910390a150505050565b60095481565b60056020528060005260406000206000915090508060000160009054906101000a900473ffffffffffffffffffffffffffffffffffffffff16908060010154908060020160009054906101000a900460ff16908060030154908060040160009054906101000a900460ff16908060050154905086565b336000600160008373ffffffffffffffffffffffffffffffffffffffff1673ffffffffffffffffffffffffffffffffffffffff16815260200190815260200160002054905060016002600083815260200190815260200160002060050160019054906101000a900460ff1660ff161480611aa1575060008054906101000a900473ffffffffffffffffffffffffffffffffffffffff1673ffffffffffffffffffffffffffffffffffffffff168273ffffffffffffffffffffffffffffffffffffffff16145b611ae0576040517f08c379a0000000000000000000000000000000000000000000000000000000008152600401611ad79061331a565b60405180910390fd5b8260005b60008214611b0e57600a82611af991906134cc565b91508080611b0690613691565b915050611ae4565b600a8160ff1614611b54576040517f08c379a0000000000000000000000000000000000000000000000000000000008152600401611b4b9061333a565b60405180910390fd5b60008054906101000a900473ffffffffffffffffffffffffffffffffffffffff1673ffffffffffffffffffffffffffffffffffffffff168973ffffffffffffffffffffffffffffffffffffffff161415611be3576040517f08c379a0000000000000000000000000000000000000000000000000000000008152600401611bda9061335a565b60405180910390fd5b600060026000600160008d73ffffffffffffffffffffffffffffffffffffffff1673ffffffffffffffffffffffffffffffffffffffff16815260200190815260200160002054815260200190815260200160002060050160009054906101000a900460ff1660ff1614611c8b576040517f08c379a0000000000000000000000000000000000000000000000000000000008152600401611c82906132da565b60405180910390fd5b60076000815480929190611c9e90613648565b919050555060006002600060075481526020019081526020016000209050600754600160008c73ffffffffffffffffffffffffffffffffffffffff1673ffffffffffffffffffffffffffffffffffffffff16815260200190815260200160002081905550898160000160006101000a81548173ffffffffffffffffffffffffffffffffffffffff021916908373ffffffffffffffffffffffffffffffffffffffff16021790555088816001019080519060200190611d5d929190612690565b5087816002019080519060200190611d76929190612690565b5086816003019080519060200190611d8f929190612690565b5085816004018190555060018160050160006101000a81548160ff021916908360ff16021790555060018160050160016101000a81548160ff021916908360ff1602179055507fd5e12dfa704a037b0ad26a4a3329c9a78e23554f7ba0639373a9d962d72ac7ca8a6007548b604051611e0a93929190612ed9565b60405180910390a150505050505050505050565b336000600160008373ffffffffffffffffffffffffffffffffffffffff1673ffffffffffffffffffffffffffffffffffffffff16815260200190815260200160002054905060016002600083815260200190815260200160002060050160019054906101000a900460ff1660ff161480611ee3575060008054906101000a900473ffffffffffffffffffffffffffffffffffffffff1673ffffffffffffffffffffffffffffffffffffffff168273ffffffffffffffffffffffffffffffffffffffff16145b611f22576040517f08c379a0000000000000000000000000000000000000000000000000000000008152600401611f199061331a565b60405180910390fd5b6249d40060046000868152602001908152602001600020600901541015611f7e576040517f08c379a0000000000000000000000000000000000000000000000000000000008152600401611f75906132ba565b60405180910390fd5b8260046000868152602001908152602001600020600b01819055506012839080600181540180825580915050600190039060005260206000200160009091909190915055600660008581526020019081526020016000208390806001815401808255809150506001900390600052602060002001600090919091909150557f39720784026078964ce352e51d42f93a54835275e1c08a441335b42cc75e3dde84428560405161202f93929190613395565b60405180910390a150505050565b600060608060606000806000336000600160008373ffffffffffffffffffffffffffffffffffffffff1673ffffffffffffffffffffffffffffffffffffffff16815260200190815260200160002054905060016002600083815260200190815260200160002060050160019054906101000a900460ff1660ff16148061210e575060008054906101000a900473ffffffffffffffffffffffffffffffffffffffff1673ffffffffffffffffffffffffffffffffffffffff168273ffffffffffffffffffffffffffffffffffffffff16145b61214d576040517f08c379a00000000000000000000000000000000000000000000000000000000081526004016121449061331a565b60405180910390fd5b6000600160008c73ffffffffffffffffffffffffffffffffffffffff1673ffffffffffffffffffffffffffffffffffffffff1681526020019081526020016000205490506002600082815260200190815260200160002060000160009054906101000a900473ffffffffffffffffffffffffffffffffffffffff1660026000838152602001908152602001600020600101600260008481526020019081526020016000206002016002600085815260200190815260200160002060030160026000868152602001908152602001600020600401546002600087815260200190815260200160002060050160009054906101000a900460ff166002600088815260200190815260200160002060050160019054906101000a900460ff1685805461227590613616565b80601f01602080910402602001604051908101604052809291908181526020018280546122a190613616565b80156122ee5780601f106122c3576101008083540402835291602001916122ee565b820191906000526020600020905b8154815290600101906020018083116122d157829003601f168201915b5050505050955084805461230190613616565b80601f016020809104026020016040519081016040528092919081815260200182805461232d90613616565b801561237a5780601f1061234f5761010080835404028352916020019161237a565b820191906000526020600020905b81548152906001019060200180831161235d57829003601f168201915b5050505050945083805461238d90613616565b80601f01602080910402602001604051908101604052809291908181526020018280546123b990613616565b80156124065780601f106123db57610100808354040283529160200191612406565b820191906000526020600020905b8154815290600101906020018083116123e957829003601f168201915b505050505093509950995099509950995099509950505050919395979092949650565b336000600160008373ffffffffffffffffffffffffffffffffffffffff1673ffffffffffffffffffffffffffffffffffffffff16815260200190815260200160002054905060016002600083815260200190815260200160002060050160019054906101000a900460ff1660ff1614806124ee575060008054906101000a900473ffffffffffffffffffffffffffffffffffffffff1673ffffffffffffffffffffffffffffffffffffffff168273ffffffffffffffffffffffffffffffffffffffff16145b61252d576040517f08c379a00000000000000000000000000000000000000000000000000000000081526004016125249061331a565b60405180910390fd5b8260026000600160003373ffffffffffffffffffffffffffffffffffffffff1673ffffffffffffffffffffffffffffffffffffffff16815260200190815260200160002054815260200190815260200160002060060160008660ff1660ff16815260200190815260200160002060008282546125a99190613476565b925050819055507fdd0c10624eeca207b1edcc3075766f7620caf2b92812fabd9d320b3834d94e69338585426040516125e594939291906131f9565b60405180910390a150505050565b604051806101000160405280600890602082028036833780820191505090505090565b604051806101800160405280600073ffffffffffffffffffffffffffffffffffffffff168152602001600081526020016060815260200160608152602001600081526020016000815260200160608152602001606081526020016060815260200160008152602001600060ff168152602001600081525090565b82805461269c90613616565b90600052602060002090601f0160209004810192826126be5760008555612705565b82601f106126d757805160ff1916838001178555612705565b82800160010185558215612705579182015b828111156127045782518255916020019190600101906126e9565b5b5090506127129190612716565b5090565b5b8082111561272f576000816000905550600101612717565b5090565b6000612746612741846133fd565b6133cc565b90508281526020810184848401111561275e57600080fd5b6127698482856135d4565b509392505050565b60008135905061278081613788565b92915050565b600082601f83011261279757600080fd5b81356127a7848260208601612733565b91505092915050565b6000813590506127bf8161379f565b92915050565b6000813590506127d4816137b6565b92915050565b6000602082840312156127ec57600080fd5b60006127fa84828501612771565b91505092915050565b600080600080600060a0868803121561281b57600080fd5b600061282988828901612771565b955050602086013567ffffffffffffffff81111561284657600080fd5b61285288828901612786565b945050604086013567ffffffffffffffff81111561286f57600080fd5b61287b88828901612786565b935050606086013567ffffffffffffffff81111561289857600080fd5b6128a488828901612786565b92505060806128b5888289016127b0565b9150509295509295909350565b6000602082840312156128d457600080fd5b60006128e2848285016127b0565b91505092915050565b60008060008060008060008060006101208a8c03121561290a57600080fd5b60006129188c828d016127b0565b99505060208a013567ffffffffffffffff81111561293557600080fd5b6129418c828d01612786565b98505060408a013567ffffffffffffffff81111561295e57600080fd5b61296a8c828d01612786565b975050606061297b8c828d016127b0565b965050608061298c8c828d016127b0565b95505060a08a013567ffffffffffffffff8111156129a957600080fd5b6129b58c828d01612786565b94505060c08a013567ffffffffffffffff8111156129d257600080fd5b6129de8c828d01612786565b93505060e08a013567ffffffffffffffff8111156129fb57600080fd5b612a078c828d01612786565b925050610100612a198c828d016127b0565b9150509295985092959850929598565b60008060408385031215612a3c57600080fd5b6000612a4a858286016127b0565b9250506020612a5b858286016127b0565b9150509250929050565b600080600060608486031215612a7a57600080fd5b6000612a88868287016127b0565b9350506020612a99868287016127c5565b9250506040612aaa868287016127b0565b9150509250925092565b60008060408385031215612ac757600080fd5b6000612ad5858286016127c5565b9250506020612ae6858286016127b0565b9150509250929050565b6000612afc8383612e0d565b60208301905092915050565b612b118161358b565b82525050565b612b2081613437565b612b2a818461345a565b9250612b358261342d565b8060005b83811015612b66578151612b4d8782612af0565b9650612b588361344d565b925050600181019050612b39565b505050505050565b6000612b7982613442565b612b838185613465565b9350612b938185602086016135e3565b612b9c81613777565b840191505092915050565b6000612bb4601783613465565b91507f4167652073686f756c642062652032206469676974732e0000000000000000006000830152602082019050919050565b6000612bf4600e83613465565b91507f53746f636b20697320656d7074790000000000000000000000000000000000006000830152602082019050919050565b6000612c34601283613465565b91507f416c7265616479207265676973746572656400000000000000000000000000006000830152602082019050919050565b6000612c74601383613465565b91507f5761697420666f7220736f6d6520646179732e000000000000000000000000006000830152602082019050919050565b6000612cb4601f83613465565b91507f426c6f6f6462616e6b20697320616c72656164792072656769737465726564006000830152602082019050919050565b6000612cf4601883613465565b91507f426c6f6f6462616e6b20646f6573206e6f7420657869737400000000000000006000830152602082019050919050565b6000612d34601c83613465565b91507f596f7520646f6e27742061646d696e2068617665206163636573732e000000006000830152602082019050919050565b6000612d74601f83613465565b91507f436f6e74616374204e6f2073686f756c64206265203130206469676974732e006000830152602082019050919050565b6000612db4602583613465565b91507f4f776e65723a596f752063616e7420626520726567697374657220617320612060008301527f62616e6b2e0000000000000000000000000000000000000000000000000000006020830152604082019050919050565b612e16816135bd565b82525050565b612e25816135bd565b82525050565b612e34816135c7565b82525050565b6000602082019050612e4f6000830184612b08565b92915050565b600060e082019050612e6a600083018a612b08565b8181036020830152612e7c8189612b6e565b90508181036040830152612e908188612b6e565b90508181036060830152612ea48187612b6e565b9050612eb36080830186612e1c565b612ec060a0830185612e2b565b612ecd60c0830184612e2b565b98975050505050505050565b6000606082019050612eee6000830186612b08565b612efb6020830185612e1c565b8181036040830152612f0d8184612b6e565b9050949350505050565b600061016082019050612f2d600083018e612b08565b612f3a602083018d612e1c565b8181036040830152612f4c818c612b6e565b90508181036060830152612f60818b612b6e565b9050612f6f608083018a612e1c565b612f7c60a0830189612e1c565b81810360c0830152612f8e8188612b6e565b905081810360e0830152612fa28187612b6e565b9050818103610100830152612fb78186612b6e565b9050612fc7610120830185612e1c565b612fd5610140830184612e1c565b9c9b505050505050505050505050565b600061018082019050612ffb600083018f612b08565b613008602083018e612e1c565b818103604083015261301a818d612b6e565b9050818103606083015261302e818c612b6e565b905061303d608083018b612e1c565b61304a60a083018a612e1c565b81810360c083015261305c8189612b6e565b905081810360e08301526130708188612b6e565b90508181036101008301526130858187612b6e565b9050613095610120830186612e1c565b6130a3610140830185612e2b565b6130b1610160830184612e1c565b9d9c50505050505050505050505050565b60006080820190506130d76000830187612b08565b6130e46020830186612e1c565b81810360408301526130f68185612b6e565b90506131056060830184612e1c565b95945050505050565b60006060820190506131236000830186612b08565b6131306020830185612e1c565b61313d6040830184612e1c565b949350505050565b600060a08201905061315a6000830188612b08565b6131676020830187612e1c565b6131746040830186612e2b565b6131816060830185612e1c565b61318e6080830184612e1c565b9695505050505050565b600060c0820190506131ad6000830189612b08565b6131ba6020830188612e1c565b6131c76040830187612e2b565b6131d46060830186612e1c565b6131e16080830185612e2b565b6131ee60a0830184612e1c565b979650505050505050565b600060808201905061320e6000830187612b08565b61321b6020830186612e2b565b6132286040830185612e1c565b6132356060830184612e1c565b95945050505050565b6000610100820190506132546000830184612b17565b92915050565b6000602082019050818103600083015261327381612ba7565b9050919050565b6000602082019050818103600083015261329381612be7565b9050919050565b600060208201905081810360008301526132b381612c27565b9050919050565b600060208201905081810360008301526132d381612c67565b9050919050565b600060208201905081810360008301526132f381612ca7565b9050919050565b6000602082019050818103600083015261331381612ce7565b9050919050565b6000602082019050818103600083015261333381612d27565b9050919050565b6000602082019050818103600083015261335381612d67565b9050919050565b6000602082019050818103600083015261337381612da7565b9050919050565b600060208201905061338f6000830184612e1c565b92915050565b60006060820190506133aa6000830186612e1c565b6133b76020830185612e1c565b6133c46040830184612e1c565b949350505050565b6000604051905081810181811067ffffffffffffffff821117156133f3576133f2613748565b5b8060405250919050565b600067ffffffffffffffff82111561341857613417613748565b5b601f19601f8301169050602081019050919050565b6000819050919050565b600060089050919050565b600081519050919050565b6000602082019050919050565b600081905092915050565b600082825260208201905092915050565b6000613481826135bd565b915061348c836135bd565b9250827fffffffffffffffffffffffffffffffffffffffffffffffffffffffffffffffff038211156134c1576134c06136bb565b5b828201905092915050565b60006134d7826135bd565b91506134e2836135bd565b9250826134f2576134f16136ea565b5b828204905092915050565b6000613508826135bd565b9150613513836135bd565b9250817fffffffffffffffffffffffffffffffffffffffffffffffffffffffffffffffff048311821515161561354c5761354b6136bb565b5b828202905092915050565b6000613562826135bd565b915061356d836135bd565b9250828210156135805761357f6136bb565b5b828203905092915050565b60006135968261359d565b9050919050565b600073ffffffffffffffffffffffffffffffffffffffff82169050919050565b6000819050919050565b600060ff82169050919050565b82818337600083830152505050565b60005b838110156136015780820151818401526020810190506135e6565b83811115613610576000848401525b50505050565b6000600282049050600182168061362e57607f821691505b6020821081141561364257613641613719565b5b50919050565b6000613653826135bd565b91507fffffffffffffffffffffffffffffffffffffffffffffffffffffffffffffffff821415613686576136856136bb565b5b600182019050919050565b600061369c826135c7565b915060ff8214156136b0576136af6136bb565b5b600182019050919050565b7f4e487b7100000000000000000000000000000000000000000000000000000000600052601160045260246000fd5b7f4e487b7100000000000000000000000000000000000000000000000000000000600052601260045260246000fd5b7f4e487b7100000000000000000000000000000000000000000000000000000000600052602260045260246000fd5b7f4e487b7100000000000000000000000000000000000000000000000000000000600052604160045260246000fd5b6000601f19601f8301169050919050565b6137918161358b565b811461379c57600080fd5b50565b6137a8816135bd565b81146137b357600080fd5b50565b6137bf816135c7565b81146137ca57600080fd5b5056fea2646970667358221220b923a53d636539ef368943f49d4ce402de25fbd978f31906076676de7c80de0264736f6c63430008000033",
  "immutableReferences": {},
  "source": "pragma solidity 0.8.0;\r\n \r\n contract BloodBank {\r\n    address public owner;\r\n\r\n    enum BloodGroup {\r\n        A_positive, //0\r\n        A_negative, //1\r\n        B_positive, //2\r\n        B_negative, //3\r\n        AB_positive, //4\r\n        AB_negative, //5\r\n        O_positive, //6\r\n        O_negative //7\r\n    }\r\n\r\n    struct Requests {\r\n        address _requester;\r\n        uint256 _cId;\r\n        uint8 _bloodgrp;\r\n        uint256 _qty;\r\n        uint8 isRequest;\r\n        uint256 isGranted;\r\n    }\r\n\r\n    struct Bloodbank {\r\n        address add;\r\n        string name;\r\n        string city;\r\n        string email;\r\n        uint256 contact;\r\n        uint8 isBank;\r\n        uint8 isadmin;\r\n        mapping(uint8 => uint256) stock;\r\n    }\r\n\r\n    struct Donor {\r\n        address add;\r\n        uint256 cId;\r\n        string name;\r\n        string city;\r\n        uint256 contact;\r\n        uint256 age;\r\n        string gender;\r\n        string bloodgrp;\r\n        string cname;\r\n        uint256 recentDonation;\r\n        uint8 isDonor;\r\n        uint256 _slot;\r\n    }\r\n\r\n    //Mappings\r\n    mapping(address => uint256) public bankId;\r\n    mapping(uint256 => Bloodbank) public banks;\r\n    mapping(address => uint256) public donorId;\r\n    mapping(uint256 => Donor) public donors;\r\n    mapping(uint256 => Requests) public request;\r\n    mapping(uint256 => uint256[]) public slot;\r\n\r\n    //events\r\n    event Bookslot(uint256 _dId, uint256 _time, uint256 _slottime);\r\n    event DonorRegistered(\r\n        address _donor,\r\n        uint256 _center,\r\n        string _bloodgrp,\r\n        uint256 _recentDonation\r\n    );\r\n    event BankRegistered(address _bank,uint256 _cId,string _centerName);\r\n    event BloodRequest(\r\n        address _requester,\r\n        uint256 _cId,\r\n        uint8 _bloodgrp,\r\n        uint256 _units,\r\n        uint256 _time\r\n    );\r\n    event RequestGranted(address _admin, uint256 _requesterid, uint256 _time);\r\n    event StockIncreased(\r\n        address _center,\r\n        uint8 _bloodgrp,\r\n        uint256 _qty,\r\n        uint256 _time\r\n    );\r\n    event StockDecreased(\r\n        address _center,\r\n        uint8 _bloodgrp,\r\n        uint256 _qty,\r\n        uint256 _time\r\n    );\r\n\r\n    //counters & arrays\r\n    uint256 public counterB;\r\n    uint256 public counterD;\r\n    uint256 public counterR;\r\n    uint256[8] Showstock;\r\n    uint256[] time;\r\n\r\n    constructor() {\r\n        owner = msg.sender;\r\n    }\r\n\r\n    //admin check\r\n    modifier onlyAdmin(address _add) {\r\n        uint256 id = bankId[_add];\r\n        require(\r\n            banks[id].isadmin == 1 || _add == owner,\r\n            \"You don't admin have access.\"\r\n        );\r\n        _;\r\n    }\r\n    \r\n     modifier validContact(uint _contact)  {\r\n    uint8 digits = 0;\r\n    while (_contact != 0) {\r\n        _contact /= 10;\r\n        digits++;\r\n    }\r\n    require(digits==10 ,\"Contact No should be 10 digits.\");\r\n    _;\r\n   }\r\n    modifier validAge(uint _age)  {\r\n    uint8 digits = 0;\r\n    while (_age != 0) {\r\n        _age /= 10;\r\n        digits++;\r\n    }\r\n    require(digits==2 ,\"Age should be 2 digits.\");\r\n    _;\r\n   }\r\n\r\n    //Add new Bloodbank\r\n    function NewBank(\r\n        address _add,\r\n        string memory _name,\r\n        string memory _city,\r\n        string memory _email,\r\n        uint256 _contact\r\n    ) public onlyAdmin(msg.sender) validContact(_contact)  {\r\n        require(_add != owner, \"Owner:You cant be register as a bank.\");\r\n        require(\r\n            banks[bankId[_add]].isBank == 0,\r\n            \"Bloodbank is already registered\"\r\n        );\r\n        counterB++;\r\n        Bloodbank storage bank = banks[counterB];\r\n        bankId[_add] = counterB;\r\n        bank.add = _add;\r\n        bank.name = _name;\r\n        bank.city = _city;\r\n        bank.email = _email;\r\n        bank.contact = _contact;\r\n        bank.isBank = 1;\r\n        bank.isadmin = 1;\r\n        emit BankRegistered(_add,counterB, _name);\r\n    }\r\n\r\n    //View Bloodbank's Data\r\n    function ViewBank(address _add)\r\n        public\r\n        view\r\n        onlyAdmin(msg.sender)\r\n        returns (\r\n            address,\r\n            string memory,\r\n            string memory,\r\n            string memory,\r\n            uint256,\r\n            uint8,\r\n            uint8\r\n        )\r\n    {\r\n        uint256 id = bankId[_add];\r\n        return (\r\n            banks[id].add,\r\n            banks[id].name,\r\n            banks[id].city,\r\n            banks[id].email,\r\n            banks[id].contact,\r\n            banks[id].isBank,\r\n            banks[id].isadmin\r\n        );\r\n    }\r\n\r\n    //After registration of donor, admin will book slot for donor if recentDonation condition fulfills\r\n    function BookSlot(uint256 _dId, uint256 _slottime)\r\n        public\r\n        onlyAdmin(msg.sender)\r\n    {\r\n        //check the recentDonation of donor is 56 days, if valid then only send slot\r\n        require(\r\n            donors[_dId].recentDonation >= (56 * 1 days),\r\n            \"Wait for some days.\"\r\n        );\r\n        donors[_dId]._slot = _slottime;\r\n        time.push(_slottime);\r\n        slot[_dId].push(_slottime)  ;\r\n        emit Bookslot(_dId, block.timestamp, _slottime);\r\n    }\r\n\r\n    //If stock is available admin will grant request\r\n    function GrantRequest(uint256 _id) public onlyAdmin(msg.sender) {\r\n        //Admin will grant the blood request  if stock available\r\n        uint8 grp = request[_id]._bloodgrp;\r\n        require(banks[_id].stock[grp] != 0, \"Stock is empty\");\r\n        request[_id].isGranted = 1;\r\n        emit RequestGranted(msg.sender, _id, block.timestamp);\r\n    }\r\n\r\n    //Quantity minus\r\n    function ReduceStock(\r\n        uint8 _bloodgrp,\r\n        uint256 _qty\r\n    ) public onlyAdmin(msg.sender) {\r\n        banks[bankId[msg.sender]].stock[_bloodgrp] -= _qty;\r\n        emit StockDecreased(msg.sender, _bloodgrp, _qty, block.timestamp);\r\n    }\r\n\r\n    //Quantity plus\r\n    function IncreaseStock(\r\n        uint8 _bloodgrp,\r\n        uint256 _qty\r\n    ) public onlyAdmin(msg.sender) {\r\n        banks[bankId[msg.sender]].stock[_bloodgrp] += _qty;\r\n        emit StockIncreased(msg.sender, _bloodgrp, _qty, block.timestamp);\r\n    }\r\n\r\n    //Register Donor\r\n    function RegisterDonor(\r\n        uint256 _cId,\r\n        string memory _name,\r\n        string memory _city,\r\n        uint256 _contact,\r\n        uint256 _age,\r\n        string memory _gender,\r\n        string memory _bloodgrp,\r\n        string memory _cname,\r\n        uint256 _recentDonation\r\n    ) public validContact(_contact) validAge(_age)  {\r\n        require(donors[donorId[msg.sender]].isDonor == 0, \"Already registered\");\r\n        require(banks[_cId].isBank == 1, \"Bloodbank does not exist\");\r\n        counterD++;\r\n        Donor memory donor;\r\n        donorId[msg.sender] = counterD;\r\n        donor.add = msg.sender;\r\n        donor.cId = _cId;\r\n        donor.name = _name;\r\n        donor.city = _city;\r\n        donor.contact = _contact;\r\n        donor.age = _age;\r\n        donor.gender = _gender;\r\n        donor.bloodgrp = _bloodgrp;\r\n        donor.cname = _cname;\r\n        donor.recentDonation = (_recentDonation * 1 days);\r\n        donor.isDonor = 1;\r\n        donors[counterD] = donor;\r\n        emit DonorRegistered(msg.sender, _cId, _bloodgrp, _recentDonation);\r\n    }\r\n\r\n    // View Donor's Data\r\n    function ViewDonor(address _add)\r\n        public\r\n        view\r\n        returns (\r\n            address,\r\n            uint256,\r\n            string memory,\r\n            string memory,\r\n            uint256,\r\n            uint256,\r\n            string memory,\r\n            string memory,\r\n            string memory,\r\n            uint256,\r\n            uint256\r\n        )\r\n    {\r\n        uint256 id = donorId[_add];\r\n        return (\r\n            donors[id].add,\r\n            donors[id].cId,\r\n            donors[id].name,\r\n            donors[id].city,\r\n            donors[id].contact,\r\n            donors[id].age,\r\n            donors[id].gender,\r\n            donors[id].bloodgrp,\r\n            donors[id].cname,\r\n            donors[id].recentDonation,\r\n            donors[id]._slot\r\n        );\r\n    }\r\n\r\n    //Request for blood to particular center\r\n    function RequestBlood(\r\n        uint256 _cId,\r\n        uint8 _bloodgrp,\r\n        uint256 _units\r\n    ) public {\r\n        counterR++;\r\n        Requests memory req = Requests(msg.sender, _cId, _bloodgrp, _units,0, 0);\r\n        request[counterR].isRequest = 1;\r\n        request[counterR] = req;\r\n        emit BloodRequest(msg.sender, _cId, _bloodgrp, _units, block.timestamp);\r\n    }\r\n\r\n    //Stock availability\r\n    function viewStock(address _add) public view returns (uint256[8] memory) {\r\n        uint256[8] memory s;\r\n        for (uint8 i; i < 8; i++) {\r\n            s[i] = banks[bankId[_add]].stock[i];\r\n        }\r\n        return s;\r\n    }\r\n   \r\n}\r\n",
  "sourcePath": "C:/Users/Acer/Desktop/Contract-1/contracts/Bloodbank.sol",
  "compiler": {
    "name": "solc",
    "version": "0.8.0+commit.c7dfd78e.Emscripten.clang"
  },
  "schemaVersion": "3.4.0",
  "updatedAt": "2021-07-05T06:28:16.228Z",
  "devdoc": {
    "kind": "dev",
    "methods": {},
    "version": 1
  },
  "userdoc": {
    "kind": "user",
    "methods": {},
    "version": 1
  }
}