{
  "contractName": "BloodBank",
  "abi": [
    {
      "inputs": [],
      "stateMutability": "nonpayable",
      "type": "constructor"
    },
    {
      "anonymous": false,
      "inputs": [
        {
          "indexed": false,
          "internalType": "address",
          "name": "_bank",
          "type": "address"
        },
        {
          "indexed": false,
          "internalType": "string",
          "name": "_centerName",
          "type": "string"
        }
      ],
      "name": "BankRegistered",
      "type": "event"
    },
    {
      "anonymous": false,
      "inputs": [
        {
          "indexed": false,
          "internalType": "address",
          "name": "_requester",
          "type": "address"
        },
        {
          "indexed": false,
          "internalType": "address",
          "name": "_center",
          "type": "address"
        },
        {
          "indexed": false,
          "internalType": "uint8",
          "name": "_bloodgrp",
          "type": "uint8"
        },
        {
          "indexed": false,
          "internalType": "uint256",
          "name": "_units",
          "type": "uint256"
        },
        {
          "indexed": false,
          "internalType": "uint256",
          "name": "_time",
          "type": "uint256"
        }
      ],
      "name": "BloodRequest",
      "type": "event"
    },
    {
      "anonymous": false,
      "inputs": [
        {
          "indexed": false,
          "internalType": "address",
          "name": "_for",
          "type": "address"
        },
        {
          "indexed": false,
          "internalType": "uint256",
          "name": "_time",
          "type": "uint256"
        },
        {
          "indexed": false,
          "internalType": "uint256",
          "name": "_slottime",
          "type": "uint256"
        }
      ],
      "name": "Bookslot",
      "type": "event"
    },
    {
      "anonymous": false,
      "inputs": [
        {
          "indexed": false,
          "internalType": "address",
          "name": "_donor",
          "type": "address"
        },
        {
          "indexed": false,
          "internalType": "address",
          "name": "_center",
          "type": "address"
        },
        {
          "indexed": false,
          "internalType": "string",
          "name": "_bloodgrp",
          "type": "string"
        },
        {
          "indexed": false,
          "internalType": "uint256",
          "name": "_recentDonation",
          "type": "uint256"
        }
      ],
      "name": "DonorRegistered",
      "type": "event"
    },
    {
      "anonymous": false,
      "inputs": [
        {
          "indexed": false,
          "internalType": "address",
          "name": "_admin",
          "type": "address"
        },
        {
          "indexed": false,
          "internalType": "uint256",
          "name": "_requesterid",
          "type": "uint256"
        },
        {
          "indexed": false,
          "internalType": "uint256",
          "name": "_time",
          "type": "uint256"
        }
      ],
      "name": "RequestGranted",
      "type": "event"
    },
    {
      "anonymous": false,
      "inputs": [
        {
          "indexed": false,
          "internalType": "address",
          "name": "_center",
          "type": "address"
        },
        {
          "indexed": false,
          "internalType": "uint8",
          "name": "_bloodgrp",
          "type": "uint8"
        },
        {
          "indexed": false,
          "internalType": "uint256",
          "name": "_qty",
          "type": "uint256"
        },
        {
          "indexed": false,
          "internalType": "uint256",
          "name": "_time",
          "type": "uint256"
        }
      ],
      "name": "StockDecreased",
      "type": "event"
    },
    {
      "anonymous": false,
      "inputs": [
        {
          "indexed": false,
          "internalType": "address",
          "name": "_center",
          "type": "address"
        },
        {
          "indexed": false,
          "internalType": "uint8",
          "name": "_bloodgrp",
          "type": "uint8"
        },
        {
          "indexed": false,
          "internalType": "uint256",
          "name": "_qty",
          "type": "uint256"
        },
        {
          "indexed": false,
          "internalType": "uint256",
          "name": "_time",
          "type": "uint256"
        }
      ],
      "name": "StockIncreased",
      "type": "event"
    },
    {
      "inputs": [
        {
          "internalType": "address",
          "name": "",
          "type": "address"
        }
      ],
      "name": "bankId",
      "outputs": [
        {
          "internalType": "uint256",
          "name": "",
          "type": "uint256"
        }
      ],
      "stateMutability": "view",
      "type": "function"
    },
    {
      "inputs": [
        {
          "internalType": "uint256",
          "name": "",
          "type": "uint256"
        }
      ],
      "name": "banks",
      "outputs": [
        {
          "internalType": "address",
          "name": "add",
          "type": "address"
        },
        {
          "internalType": "string",
          "name": "name",
          "type": "string"
        },
        {
          "internalType": "string",
          "name": "city",
          "type": "string"
        },
        {
          "internalType": "string",
          "name": "email",
          "type": "string"
        },
        {
          "internalType": "uint256",
          "name": "contact",
          "type": "uint256"
        },
        {
          "internalType": "uint8",
          "name": "isBank",
          "type": "uint8"
        },
        {
          "internalType": "uint8",
          "name": "isadmin",
          "type": "uint8"
        }
      ],
      "stateMutability": "view",
      "type": "function"
    },
    {
      "inputs": [],
      "name": "counterB",
      "outputs": [
        {
          "internalType": "uint256",
          "name": "",
          "type": "uint256"
        }
      ],
      "stateMutability": "view",
      "type": "function"
    },
    {
      "inputs": [],
      "name": "counterD",
      "outputs": [
        {
          "internalType": "uint256",
          "name": "",
          "type": "uint256"
        }
      ],
      "stateMutability": "view",
      "type": "function"
    },
    {
      "inputs": [],
      "name": "counterR",
      "outputs": [
        {
          "internalType": "uint256",
          "name": "",
          "type": "uint256"
        }
      ],
      "stateMutability": "view",
      "type": "function"
    },
    {
      "inputs": [
        {
          "internalType": "address",
          "name": "",
          "type": "address"
        }
      ],
      "name": "donorId",
      "outputs": [
        {
          "internalType": "uint256",
          "name": "",
          "type": "uint256"
        }
      ],
      "stateMutability": "view",
      "type": "function"
    },
    {
      "inputs": [
        {
          "internalType": "uint256",
          "name": "",
          "type": "uint256"
        }
      ],
      "name": "donors",
      "outputs": [
        {
          "internalType": "address",
          "name": "add",
          "type": "address"
        },
        {
          "internalType": "address",
          "name": "cadd",
          "type": "address"
        },
        {
          "internalType": "string",
          "name": "name",
          "type": "string"
        },
        {
          "internalType": "string",
          "name": "city",
          "type": "string"
        },
        {
          "internalType": "uint256",
          "name": "contact",
          "type": "uint256"
        },
        {
          "internalType": "uint256",
          "name": "age",
          "type": "uint256"
        },
        {
          "internalType": "string",
          "name": "gender",
          "type": "string"
        },
        {
          "internalType": "string",
          "name": "bloodgrp",
          "type": "string"
        },
        {
          "internalType": "string",
          "name": "cname",
          "type": "string"
        },
        {
          "internalType": "uint256",
          "name": "recentDonation",
          "type": "uint256"
        },
        {
          "internalType": "uint8",
          "name": "isDonor",
          "type": "uint8"
        },
        {
          "internalType": "uint256",
          "name": "_slot",
          "type": "uint256"
        }
      ],
      "stateMutability": "view",
      "type": "function"
    },
    {
      "inputs": [],
      "name": "owner",
      "outputs": [
        {
          "internalType": "address",
          "name": "",
          "type": "address"
        }
      ],
      "stateMutability": "view",
      "type": "function"
    },
    {
      "inputs": [
        {
          "internalType": "uint256",
          "name": "",
          "type": "uint256"
        }
      ],
      "name": "request",
      "outputs": [
        {
          "internalType": "address",
          "name": "_requester",
          "type": "address"
        },
        {
          "internalType": "address",
          "name": "_to",
          "type": "address"
        },
        {
          "internalType": "uint8",
          "name": "_bloodgrp",
          "type": "uint8"
        },
        {
          "internalType": "uint256",
          "name": "_qty",
          "type": "uint256"
        },
        {
          "internalType": "uint256",
          "name": "isGranted",
          "type": "uint256"
        }
      ],
      "stateMutability": "view",
      "type": "function"
    },
    {
      "inputs": [
        {
          "internalType": "uint256",
          "name": "",
          "type": "uint256"
        },
        {
          "internalType": "uint256",
          "name": "",
          "type": "uint256"
        }
      ],
      "name": "slot",
      "outputs": [
        {
          "internalType": "uint256",
          "name": "",
          "type": "uint256"
        }
      ],
      "stateMutability": "view",
      "type": "function"
    },
    {
      "inputs": [
        {
          "internalType": "address",
          "name": "_add",
          "type": "address"
        },
        {
          "internalType": "string",
          "name": "_name",
          "type": "string"
        },
        {
          "internalType": "string",
          "name": "_city",
          "type": "string"
        },
        {
          "internalType": "string",
          "name": "_email",
          "type": "string"
        },
        {
          "internalType": "uint256",
          "name": "_contact",
          "type": "uint256"
        }
      ],
      "name": "NewBank",
      "outputs": [],
      "stateMutability": "nonpayable",
      "type": "function"
    },
    {
      "inputs": [
        {
          "internalType": "address",
          "name": "_add",
          "type": "address"
        }
      ],
      "name": "ViewBank",
      "outputs": [
        {
          "internalType": "address",
          "name": "",
          "type": "address"
        },
        {
          "internalType": "string",
          "name": "",
          "type": "string"
        },
        {
          "internalType": "string",
          "name": "",
          "type": "string"
        },
        {
          "internalType": "string",
          "name": "",
          "type": "string"
        },
        {
          "internalType": "uint256",
          "name": "",
          "type": "uint256"
        },
        {
          "internalType": "uint8",
          "name": "",
          "type": "uint8"
        },
        {
          "internalType": "uint8",
          "name": "",
          "type": "uint8"
        }
      ],
      "stateMutability": "view",
      "type": "function"
    },
    {
      "inputs": [
        {
          "internalType": "address",
          "name": "_donor",
          "type": "address"
        },
        {
          "internalType": "uint256",
          "name": "_slottime",
          "type": "uint256"
        }
      ],
      "name": "BookSlot",
      "outputs": [],
      "stateMutability": "nonpayable",
      "type": "function"
    },
    {
      "inputs": [
        {
          "internalType": "uint256",
          "name": "_id",
          "type": "uint256"
        }
      ],
      "name": "GrantRequest",
      "outputs": [],
      "stateMutability": "nonpayable",
      "type": "function"
    },
    {
      "inputs": [
        {
          "internalType": "address",
          "name": "_add",
          "type": "address"
        },
        {
          "internalType": "uint8",
          "name": "_bloodgrp",
          "type": "uint8"
        },
        {
          "internalType": "uint256",
          "name": "_qty",
          "type": "uint256"
        }
      ],
      "name": "ReduceStock",
      "outputs": [],
      "stateMutability": "nonpayable",
      "type": "function"
    },
    {
      "inputs": [
        {
          "internalType": "address",
          "name": "_add",
          "type": "address"
        },
        {
          "internalType": "uint8",
          "name": "_bloodgrp",
          "type": "uint8"
        },
        {
          "internalType": "uint256",
          "name": "_qty",
          "type": "uint256"
        }
      ],
      "name": "IncreaseStock",
      "outputs": [],
      "stateMutability": "nonpayable",
      "type": "function"
    },
    {
      "inputs": [
        {
          "internalType": "address",
          "name": "_cadd",
          "type": "address"
        },
        {
          "internalType": "string",
          "name": "_name",
          "type": "string"
        },
        {
          "internalType": "string",
          "name": "_city",
          "type": "string"
        },
        {
          "internalType": "uint256",
          "name": "_contact",
          "type": "uint256"
        },
        {
          "internalType": "uint256",
          "name": "_age",
          "type": "uint256"
        },
        {
          "internalType": "string",
          "name": "_gender",
          "type": "string"
        },
        {
          "internalType": "string",
          "name": "_bloodgrp",
          "type": "string"
        },
        {
          "internalType": "string",
          "name": "_cname",
          "type": "string"
        },
        {
          "internalType": "uint256",
          "name": "_recentDonation",
          "type": "uint256"
        }
      ],
      "name": "RegisterDonor",
      "outputs": [],
      "stateMutability": "nonpayable",
      "type": "function"
    },
    {
      "inputs": [
        {
          "internalType": "address",
          "name": "_add",
          "type": "address"
        }
      ],
      "name": "ViewDonor",
      "outputs": [
        {
          "internalType": "address",
          "name": "",
          "type": "address"
        },
        {
          "internalType": "address",
          "name": "",
          "type": "address"
        },
        {
          "internalType": "string",
          "name": "",
          "type": "string"
        },
        {
          "internalType": "string",
          "name": "",
          "type": "string"
        },
        {
          "internalType": "uint256",
          "name": "",
          "type": "uint256"
        },
        {
          "internalType": "uint256",
          "name": "",
          "type": "uint256"
        },
        {
          "internalType": "string",
          "name": "",
          "type": "string"
        },
        {
          "internalType": "string",
          "name": "",
          "type": "string"
        },
        {
          "internalType": "string",
          "name": "",
          "type": "string"
        },
        {
          "internalType": "uint256",
          "name": "",
          "type": "uint256"
        },
        {
          "internalType": "uint256",
          "name": "",
          "type": "uint256"
        }
      ],
      "stateMutability": "view",
      "type": "function"
    },
    {
      "inputs": [
        {
          "internalType": "address",
          "name": "_add",
          "type": "address"
        },
        {
          "internalType": "uint8",
          "name": "_bloodgrp",
          "type": "uint8"
        },
        {
          "internalType": "uint256",
          "name": "_units",
          "type": "uint256"
        }
      ],
      "name": "RequestBlood",
      "outputs": [],
      "stateMutability": "nonpayable",
      "type": "function"
    },
    {
      "inputs": [
        {
          "internalType": "address",
          "name": "_add",
          "type": "address"
        }
      ],
      "name": "viewStock",
      "outputs": [
        {
          "internalType": "uint256[8]",
          "name": "",
          "type": "uint256[8]"
        }
      ],
      "stateMutability": "view",
      "type": "function"
    }
  ],
  "bytecode": "0x608060405234801561001057600080fd5b50336000806101000a81548173ffffffffffffffffffffffffffffffffffffffff021916908373ffffffffffffffffffffffffffffffffffffffff160217905550613521806100606000396000f3fe608060405234801561001057600080fd5b506004361061012b5760003560e01c80637978862c116100ad578063a20a7c5311610071578063a20a7c5314610381578063b76f1c481461039f578063d845a4b3146103bb578063dff2ae67146103ef578063e3854beb1461040b5761012b565b80637978862c146102bd578063822c64f1146102db57806382f916801461030b5780638d5432cb146103455780638da5cb5b146103635761012b565b80633cb96882116100f45780633cb96882146101fe5780634abfa1631461022e5780634ca9d1b81461026957806358af6d65146102855780637571adb4146102a15761012b565b806285ae2b1461013057806304a5b1e9146101665780631004a40f14610182578063311fcd0b146101b25780633b60766e146101ce575b600080fd5b61014a600480360381019061014591906129f5565b610441565b60405161015d9796959493929190612f53565b60405180910390f35b610180600480360381019061017b919061296a565b610655565b005b61019c60048036038101906101979190612744565b6108cf565b6040516101a99190613053565b60405180910390f35b6101cc60048036038101906101c791906129f5565b6109bd565b005b6101e860048036038101906101e39190612744565b610bb7565b6040516101f5919061312f565b60405180910390f35b61021860048036038101906102139190612744565b610bcf565b604051610225919061312f565b60405180910390f35b610248600480360381019061024391906129f5565b610be7565b6040516102609c9b9a99989796959493929190612da7565b60405180910390f35b610283600480360381019061027e91906129a6565b610f3c565b005b61029f600480360381019061029a91906129a6565b6110d0565b005b6102bb60048036038101906102b691906129a6565b61129b565b005b6102c5611466565b6040516102d2919061312f565b60405180910390f35b6102f560048036038101906102f09190612a1e565b61146c565b604051610302919061312f565b60405180910390f35b61032560048036038101906103209190612744565b61149d565b60405161033c9b9a99989796959493929190612cd9565b60405180910390f35b61034d61190c565b60405161035a919061312f565b60405180910390f35b61036b611912565b6040516103789190612cbe565b60405180910390f35b610389611936565b604051610396919061312f565b60405180910390f35b6103b960048036038101906103b4919061282c565b61193c565b005b6103d560048036038101906103d091906129f5565b611d9f565b6040516103e6959493929190612ed0565b60405180910390f35b6104096004803603810190610404919061276d565b611e22565b005b61042560048036038101906104209190612744565b61215b565b6040516104389796959493929190612f53565b60405180910390f35b60026020528060005260406000206000915090508060000160009054906101000a900473ffffffffffffffffffffffffffffffffffffffff169080600101805461048a90613363565b80601f01602080910402602001604051908101604052809291908181526020018280546104b690613363565b80156105035780601f106104d857610100808354040283529160200191610503565b820191906000526020600020905b8154815290600101906020018083116104e657829003601f168201915b50505050509080600201805461051890613363565b80601f016020809104026020016040519081016040528092919081815260200182805461054490613363565b80156105915780601f1061056657610100808354040283529160200191610591565b820191906000526020600020905b81548152906001019060200180831161057457829003601f168201915b5050505050908060030180546105a690613363565b80601f01602080910402602001604051908101604052809291908181526020018280546105d290613363565b801561061f5780601f106105f45761010080835404028352916020019161061f565b820191906000526020600020905b81548152906001019060200180831161060257829003601f168201915b5050505050908060040154908060050160009054906101000a900460ff16908060050160019054906101000a900460ff16905087565b336000600160008373ffffffffffffffffffffffffffffffffffffffff1673ffffffffffffffffffffffffffffffffffffffff16815260200190815260200160002054905060016002600083815260200190815260200160002060050160019054906101000a900460ff1660ff16148061071a575060008054906101000a900473ffffffffffffffffffffffffffffffffffffffff1673ffffffffffffffffffffffffffffffffffffffff168273ffffffffffffffffffffffffffffffffffffffff16145b610759576040517f08c379a00000000000000000000000000000000000000000000000000000000081526004016107509061306f565b60405180910390fd5b6249d40060046000600360008873ffffffffffffffffffffffffffffffffffffffff1673ffffffffffffffffffffffffffffffffffffffff1681526020019081526020016000205481526020019081526020016000206009015410156107f4576040517f08c379a00000000000000000000000000000000000000000000000000000000081526004016107eb906130cf565b60405180910390fd5b6000600360008673ffffffffffffffffffffffffffffffffffffffff1673ffffffffffffffffffffffffffffffffffffffff1681526020019081526020016000205490508360046000838152602001908152602001600020600b0181905550600660008281526020019081526020016000208490806001815401808255809150506001900390600052602060002001600090919091909150557f2e867880a2a65caee71bde75393738bd6750bafc87307c5e1136a18c8a5ea8908542866040516108c093929190612fd7565b60405180910390a15050505050565b6108d7612547565b6108df612547565b60005b60088160ff1610156109b35760026000600160008773ffffffffffffffffffffffffffffffffffffffff1673ffffffffffffffffffffffffffffffffffffffff16815260200190815260200160002054815260200190815260200160002060060160008260ff1660ff16815260200190815260200160002054828260ff1660088110610997577f4e487b7100000000000000000000000000000000000000000000000000000000600052603260045260246000fd5b60200201818152505080806109ab906133de565b9150506108e2565b5080915050919050565b336000600160008373ffffffffffffffffffffffffffffffffffffffff1673ffffffffffffffffffffffffffffffffffffffff16815260200190815260200160002054905060016002600083815260200190815260200160002060050160019054906101000a900460ff1660ff161480610a82575060008054906101000a900473ffffffffffffffffffffffffffffffffffffffff1673ffffffffffffffffffffffffffffffffffffffff168273ffffffffffffffffffffffffffffffffffffffff16145b610ac1576040517f08c379a0000000000000000000000000000000000000000000000000000000008152600401610ab89061306f565b60405180910390fd5b60006005600085815260200190815260200160002060010160149054906101000a900460ff16905060006002600086815260200190815260200160002060060160008360ff1660ff168152602001908152602001600020541415610b5a576040517f08c379a0000000000000000000000000000000000000000000000000000000008152600401610b519061308f565b60405180910390fd5b600160056000868152602001908152602001600020600301819055507f7418870c2082d7103c55c208cb3250760072890df4f5b4309ae876fbb674441b338542604051610ba993929190612fd7565b60405180910390a150505050565b60036020528060005260406000206000915090505481565b60016020528060005260406000206000915090505481565b60046020528060005260406000206000915090508060000160009054906101000a900473ffffffffffffffffffffffffffffffffffffffff16908060010160009054906101000a900473ffffffffffffffffffffffffffffffffffffffff1690806002018054610c5690613363565b80601f0160208091040260200160405190810160405280929190818152602001828054610c8290613363565b8015610ccf5780601f10610ca457610100808354040283529160200191610ccf565b820191906000526020600020905b815481529060010190602001808311610cb257829003601f168201915b505050505090806003018054610ce490613363565b80601f0160208091040260200160405190810160405280929190818152602001828054610d1090613363565b8015610d5d5780601f10610d3257610100808354040283529160200191610d5d565b820191906000526020600020905b815481529060010190602001808311610d4057829003601f168201915b505050505090806004015490806005015490806006018054610d7e90613363565b80601f0160208091040260200160405190810160405280929190818152602001828054610daa90613363565b8015610df75780601f10610dcc57610100808354040283529160200191610df7565b820191906000526020600020905b815481529060010190602001808311610dda57829003601f168201915b505050505090806007018054610e0c90613363565b80601f0160208091040260200160405190810160405280929190818152602001828054610e3890613363565b8015610e855780601f10610e5a57610100808354040283529160200191610e85565b820191906000526020600020905b815481529060010190602001808311610e6857829003601f168201915b505050505090806008018054610e9a90613363565b80601f0160208091040260200160405190810160405280929190818152602001828054610ec690613363565b8015610f135780601f10610ee857610100808354040283529160200191610f13565b820191906000526020600020905b815481529060010190602001808311610ef657829003601f168201915b50505050509080600901549080600a0160009054906101000a900460ff169080600b015490508c565b60096000815480929190610f4f90613395565b919050555060006040518060a001604052803373ffffffffffffffffffffffffffffffffffffffff1681526020018573ffffffffffffffffffffffffffffffffffffffff1681526020018460ff168152602001838152602001600081525090508060056000600954815260200190815260200160002060008201518160000160006101000a81548173ffffffffffffffffffffffffffffffffffffffff021916908373ffffffffffffffffffffffffffffffffffffffff16021790555060208201518160010160006101000a81548173ffffffffffffffffffffffffffffffffffffffff021916908373ffffffffffffffffffffffffffffffffffffffff16021790555060408201518160010160146101000a81548160ff021916908360ff16021790555060608201518160020155608082015181600301559050507f72cd89e127d1ae299d052f4812a6bb33b489b64b5b22c7cd8d54aaeab93e614633858585426040516110c2959493929190612ed0565b60405180910390a150505050565b336000600160008373ffffffffffffffffffffffffffffffffffffffff1673ffffffffffffffffffffffffffffffffffffffff16815260200190815260200160002054905060016002600083815260200190815260200160002060050160019054906101000a900460ff1660ff161480611195575060008054906101000a900473ffffffffffffffffffffffffffffffffffffffff1673ffffffffffffffffffffffffffffffffffffffff168273ffffffffffffffffffffffffffffffffffffffff16145b6111d4576040517f08c379a00000000000000000000000000000000000000000000000000000000081526004016111cb9061306f565b60405180910390fd5b8260026000600160008973ffffffffffffffffffffffffffffffffffffffff1673ffffffffffffffffffffffffffffffffffffffff16815260200190815260200160002054815260200190815260200160002060060160008660ff1660ff168152602001908152602001600020600082825461125091906131f4565b925050819055507fdd0c10624eeca207b1edcc3075766f7620caf2b92812fabd9d320b3834d94e693385854260405161128c949392919061300e565b60405180910390a15050505050565b336000600160008373ffffffffffffffffffffffffffffffffffffffff1673ffffffffffffffffffffffffffffffffffffffff16815260200190815260200160002054905060016002600083815260200190815260200160002060050160019054906101000a900460ff1660ff161480611360575060008054906101000a900473ffffffffffffffffffffffffffffffffffffffff1673ffffffffffffffffffffffffffffffffffffffff168273ffffffffffffffffffffffffffffffffffffffff16145b61139f576040517f08c379a00000000000000000000000000000000000000000000000000000000081526004016113969061306f565b60405180910390fd5b8260026000600160008973ffffffffffffffffffffffffffffffffffffffff1673ffffffffffffffffffffffffffffffffffffffff16815260200190815260200160002054815260200190815260200160002060060160008660ff1660ff168152602001908152602001600020600082825461141b91906132a4565b925050819055507f58ab0fa9738b16119fb95a620cc4241ca5ca1e82da6f9d1a185b27c0e142f78133858542604051611457949392919061300e565b60405180910390a15050505050565b60075481565b6006602052816000526040600020818154811061148857600080fd5b90600052602060002001600091509150505481565b60008060608060008060608060606000806000600360008e73ffffffffffffffffffffffffffffffffffffffff1673ffffffffffffffffffffffffffffffffffffffff1681526020019081526020016000205490506004600082815260200190815260200160002060000160009054906101000a900473ffffffffffffffffffffffffffffffffffffffff166004600083815260200190815260200160002060010160009054906101000a900473ffffffffffffffffffffffffffffffffffffffff166004600084815260200190815260200160002060020160046000858152602001908152602001600020600301600460008681526020019081526020016000206004015460046000878152602001908152602001600020600501546004600088815260200190815260200160002060060160046000898152602001908152602001600020600701600460008a8152602001908152602001600020600801600460008b815260200190815260200160002060090154600460008c8152602001908152602001600020600b015488805461163690613363565b80601f016020809104026020016040519081016040528092919081815260200182805461166290613363565b80156116af5780601f10611684576101008083540402835291602001916116af565b820191906000526020600020905b81548152906001019060200180831161169257829003601f168201915b505050505098508780546116c290613363565b80601f01602080910402602001604051908101604052809291908181526020018280546116ee90613363565b801561173b5780601f106117105761010080835404028352916020019161173b565b820191906000526020600020905b81548152906001019060200180831161171e57829003601f168201915b5050505050975084805461174e90613363565b80601f016020809104026020016040519081016040528092919081815260200182805461177a90613363565b80156117c75780601f1061179c576101008083540402835291602001916117c7565b820191906000526020600020905b8154815290600101906020018083116117aa57829003601f168201915b505050505094508380546117da90613363565b80601f016020809104026020016040519081016040528092919081815260200182805461180690613363565b80156118535780601f1061182857610100808354040283529160200191611853565b820191906000526020600020905b81548152906001019060200180831161183657829003601f168201915b5050505050935082805461186690613363565b80601f016020809104026020016040519081016040528092919081815260200182805461189290613363565b80156118df5780601f106118b4576101008083540402835291602001916118df565b820191906000526020600020905b8154815290600101906020018083116118c257829003601f168201915b505050505092509b509b509b509b509b509b509b509b509b509b509b505091939597999b90929496989a50565b60085481565b60008054906101000a900473ffffffffffffffffffffffffffffffffffffffff1681565b60095481565b600060046000600360003373ffffffffffffffffffffffffffffffffffffffff1673ffffffffffffffffffffffffffffffffffffffff168152602001908152602001600020548152602001908152602001600020600a0160009054906101000a900460ff1660ff16146119e4576040517f08c379a00000000000000000000000000000000000000000000000000000000081526004016119db906130af565b60405180910390fd5b600160026000600160008d73ffffffffffffffffffffffffffffffffffffffff1673ffffffffffffffffffffffffffffffffffffffff16815260200190815260200160002054815260200190815260200160002060050160009054906101000a900460ff1660ff1614611a8c576040517f08c379a0000000000000000000000000000000000000000000000000000000008152600401611a839061310f565b60405180910390fd5b60086000815480929190611a9f90613395565b9190505550611aac61256a565b600854600360003373ffffffffffffffffffffffffffffffffffffffff1673ffffffffffffffffffffffffffffffffffffffff1681526020019081526020016000208190555033816000019073ffffffffffffffffffffffffffffffffffffffff16908173ffffffffffffffffffffffffffffffffffffffff168152505089816020019073ffffffffffffffffffffffffffffffffffffffff16908173ffffffffffffffffffffffffffffffffffffffff168152505088816040018190525087816060018190525086816080018181525050858160a0018181525050848160c00181905250838160e00181905250828161010001819052506201518082611bb3919061324a565b81610120018181525050600181610140019060ff16908160ff16815250508060046000600854815260200190815260200160002060008201518160000160006101000a81548173ffffffffffffffffffffffffffffffffffffffff021916908373ffffffffffffffffffffffffffffffffffffffff16021790555060208201518160010160006101000a81548173ffffffffffffffffffffffffffffffffffffffff021916908373ffffffffffffffffffffffffffffffffffffffff1602179055506040820151816002019080519060200190611c919291906125fa565b506060820151816003019080519060200190611cae9291906125fa565b506080820151816004015560a0820151816005015560c0820151816006019080519060200190611cdf9291906125fa565b5060e0820151816007019080519060200190611cfc9291906125fa565b50610100820151816008019080519060200190611d1a9291906125fa565b50610120820151816009015561014082015181600a0160006101000a81548160ff021916908360ff16021790555061016082015181600b01559050507f3263dfdbf806bf39e35558a9c56a7a30c38d774968ff66bced3a62743bda55a0338b8685604051611d8b9493929190612e84565b60405180910390a150505050505050505050565b60056020528060005260406000206000915090508060000160009054906101000a900473ffffffffffffffffffffffffffffffffffffffff16908060010160009054906101000a900473ffffffffffffffffffffffffffffffffffffffff16908060010160149054906101000a900460ff16908060020154908060030154905085565b336000600160008373ffffffffffffffffffffffffffffffffffffffff1673ffffffffffffffffffffffffffffffffffffffff16815260200190815260200160002054905060016002600083815260200190815260200160002060050160019054906101000a900460ff1660ff161480611ee7575060008054906101000a900473ffffffffffffffffffffffffffffffffffffffff1673ffffffffffffffffffffffffffffffffffffffff168273ffffffffffffffffffffffffffffffffffffffff16145b611f26576040517f08c379a0000000000000000000000000000000000000000000000000000000008152600401611f1d9061306f565b60405180910390fd5b600060026000600160003373ffffffffffffffffffffffffffffffffffffffff1673ffffffffffffffffffffffffffffffffffffffff16815260200190815260200160002054815260200190815260200160002060050160009054906101000a900460ff1660ff1614611fce576040517f08c379a0000000000000000000000000000000000000000000000000000000008152600401611fc5906130ef565b60405180910390fd5b60076000815480929190611fe190613395565b919050555060006002600060075481526020019081526020016000209050600754600160008a73ffffffffffffffffffffffffffffffffffffffff1673ffffffffffffffffffffffffffffffffffffffff16815260200190815260200160002081905550878160000160006101000a81548173ffffffffffffffffffffffffffffffffffffffff021916908373ffffffffffffffffffffffffffffffffffffffff160217905550868160010190805190602001906120a09291906125fa565b50858160020190805190602001906120b99291906125fa565b50848160030190805190602001906120d29291906125fa565b5083816004018190555060018160050160006101000a81548160ff021916908360ff16021790555060018160050160016101000a81548160ff021916908360ff1602179055507f3d39b9dc3cc28f0852c205a5818a351f20e13393f499c9a7ce42faee19843ac38888604051612149929190612f23565b60405180910390a15050505050505050565b600060608060606000806000336000600160008373ffffffffffffffffffffffffffffffffffffffff1673ffffffffffffffffffffffffffffffffffffffff16815260200190815260200160002054905060016002600083815260200190815260200160002060050160019054906101000a900460ff1660ff16148061222c575060008054906101000a900473ffffffffffffffffffffffffffffffffffffffff1673ffffffffffffffffffffffffffffffffffffffff168273ffffffffffffffffffffffffffffffffffffffff16145b61226b576040517f08c379a00000000000000000000000000000000000000000000000000000000081526004016122629061306f565b60405180910390fd5b6000600160008c73ffffffffffffffffffffffffffffffffffffffff1673ffffffffffffffffffffffffffffffffffffffff1681526020019081526020016000205490506002600082815260200190815260200160002060000160009054906101000a900473ffffffffffffffffffffffffffffffffffffffff1660026000838152602001908152602001600020600101600260008481526020019081526020016000206002016002600085815260200190815260200160002060030160026000868152602001908152602001600020600401546002600087815260200190815260200160002060050160009054906101000a900460ff166002600088815260200190815260200160002060050160019054906101000a900460ff1685805461239390613363565b80601f01602080910402602001604051908101604052809291908181526020018280546123bf90613363565b801561240c5780601f106123e15761010080835404028352916020019161240c565b820191906000526020600020905b8154815290600101906020018083116123ef57829003601f168201915b5050505050955084805461241f90613363565b80601f016020809104026020016040519081016040528092919081815260200182805461244b90613363565b80156124985780601f1061246d57610100808354040283529160200191612498565b820191906000526020600020905b81548152906001019060200180831161247b57829003601f168201915b505050505094508380546124ab90613363565b80601f01602080910402602001604051908101604052809291908181526020018280546124d790613363565b80156125245780601f106124f957610100808354040283529160200191612524565b820191906000526020600020905b81548152906001019060200180831161250757829003601f168201915b505050505093509950995099509950995099509950505050919395979092949650565b604051806101000160405280600890602082028036833780820191505090505090565b604051806101800160405280600073ffffffffffffffffffffffffffffffffffffffff168152602001600073ffffffffffffffffffffffffffffffffffffffff1681526020016060815260200160608152602001600081526020016000815260200160608152602001606081526020016060815260200160008152602001600060ff168152602001600081525090565b82805461260690613363565b90600052602060002090601f016020900481019282612628576000855561266f565b82601f1061264157805160ff191683800117855561266f565b8280016001018555821561266f579182015b8281111561266e578251825591602001919060010190612653565b5b50905061267c9190612680565b5090565b5b80821115612699576000816000905550600101612681565b5090565b60006126b06126ab8461317b565b61314a565b9050828152602081018484840111156126c857600080fd5b6126d3848285613321565b509392505050565b6000813590506126ea816134a6565b92915050565b600082601f83011261270157600080fd5b813561271184826020860161269d565b91505092915050565b600081359050612729816134bd565b92915050565b60008135905061273e816134d4565b92915050565b60006020828403121561275657600080fd5b6000612764848285016126db565b91505092915050565b600080600080600060a0868803121561278557600080fd5b6000612793888289016126db565b955050602086013567ffffffffffffffff8111156127b057600080fd5b6127bc888289016126f0565b945050604086013567ffffffffffffffff8111156127d957600080fd5b6127e5888289016126f0565b935050606086013567ffffffffffffffff81111561280257600080fd5b61280e888289016126f0565b925050608061281f8882890161271a565b9150509295509295909350565b60008060008060008060008060006101208a8c03121561284b57600080fd5b60006128598c828d016126db565b99505060208a013567ffffffffffffffff81111561287657600080fd5b6128828c828d016126f0565b98505060408a013567ffffffffffffffff81111561289f57600080fd5b6128ab8c828d016126f0565b97505060606128bc8c828d0161271a565b96505060806128cd8c828d0161271a565b95505060a08a013567ffffffffffffffff8111156128ea57600080fd5b6128f68c828d016126f0565b94505060c08a013567ffffffffffffffff81111561291357600080fd5b61291f8c828d016126f0565b93505060e08a013567ffffffffffffffff81111561293c57600080fd5b6129488c828d016126f0565b92505061010061295a8c828d0161271a565b9150509295985092959850929598565b6000806040838503121561297d57600080fd5b600061298b858286016126db565b925050602061299c8582860161271a565b9150509250929050565b6000806000606084860312156129bb57600080fd5b60006129c9868287016126db565b93505060206129da8682870161272f565b92505060406129eb8682870161271a565b9150509250925092565b600060208284031215612a0757600080fd5b6000612a158482850161271a565b91505092915050565b60008060408385031215612a3157600080fd5b6000612a3f8582860161271a565b9250506020612a508582860161271a565b9150509250929050565b6000612a668383612c91565b60208301905092915050565b612a7b816132d8565b82525050565b612a8a816131b5565b612a9481846131d8565b9250612a9f826131ab565b8060005b83811015612ad0578151612ab78782612a5a565b9650612ac2836131cb565b925050600181019050612aa3565b505050505050565b6000612ae3826131c0565b612aed81856131e3565b9350612afd818560208601613330565b612b0681613495565b840191505092915050565b6000612b1e6016836131e3565b91507f596f7520646f6e27742068617665206163636573732e000000000000000000006000830152602082019050919050565b6000612b5e600e836131e3565b91507f53746f636b20697320656d7074790000000000000000000000000000000000006000830152602082019050919050565b6000612b9e6012836131e3565b91507f416c7265616479207265676973746572656400000000000000000000000000006000830152602082019050919050565b6000612bde6013836131e3565b91507f5761697420666f7220736f6d6520646179732e000000000000000000000000006000830152602082019050919050565b6000612c1e601f836131e3565b91507f426c6f6f6462616e6b20697320616c72656164792072656769737465726564006000830152602082019050919050565b6000612c5e6013836131e3565b91507f426c6f6f6462616e6b206e6f74206578697374000000000000000000000000006000830152602082019050919050565b612c9a8161330a565b82525050565b612ca98161330a565b82525050565b612cb881613314565b82525050565b6000602082019050612cd36000830184612a72565b92915050565b600061016082019050612cef600083018e612a72565b612cfc602083018d612a72565b8181036040830152612d0e818c612ad8565b90508181036060830152612d22818b612ad8565b9050612d31608083018a612ca0565b612d3e60a0830189612ca0565b81810360c0830152612d508188612ad8565b905081810360e0830152612d648187612ad8565b9050818103610100830152612d798186612ad8565b9050612d89610120830185612ca0565b612d97610140830184612ca0565b9c9b505050505050505050505050565b600061018082019050612dbd600083018f612a72565b612dca602083018e612a72565b8181036040830152612ddc818d612ad8565b90508181036060830152612df0818c612ad8565b9050612dff608083018b612ca0565b612e0c60a083018a612ca0565b81810360c0830152612e1e8189612ad8565b905081810360e0830152612e328188612ad8565b9050818103610100830152612e478187612ad8565b9050612e57610120830186612ca0565b612e65610140830185612caf565b612e73610160830184612ca0565b9d9c50505050505050505050505050565b6000608082019050612e996000830187612a72565b612ea66020830186612a72565b8181036040830152612eb88185612ad8565b9050612ec76060830184612ca0565b95945050505050565b600060a082019050612ee56000830188612a72565b612ef26020830187612a72565b612eff6040830186612caf565b612f0c6060830185612ca0565b612f196080830184612ca0565b9695505050505050565b6000604082019050612f386000830185612a72565b8181036020830152612f4a8184612ad8565b90509392505050565b600060e082019050612f68600083018a612a72565b8181036020830152612f7a8189612ad8565b90508181036040830152612f8e8188612ad8565b90508181036060830152612fa28187612ad8565b9050612fb16080830186612ca0565b612fbe60a0830185612caf565b612fcb60c0830184612caf565b98975050505050505050565b6000606082019050612fec6000830186612a72565b612ff96020830185612ca0565b6130066040830184612ca0565b949350505050565b60006080820190506130236000830187612a72565b6130306020830186612caf565b61303d6040830185612ca0565b61304a6060830184612ca0565b95945050505050565b6000610100820190506130696000830184612a81565b92915050565b6000602082019050818103600083015261308881612b11565b9050919050565b600060208201905081810360008301526130a881612b51565b9050919050565b600060208201905081810360008301526130c881612b91565b9050919050565b600060208201905081810360008301526130e881612bd1565b9050919050565b6000602082019050818103600083015261310881612c11565b9050919050565b6000602082019050818103600083015261312881612c51565b9050919050565b60006020820190506131446000830184612ca0565b92915050565b6000604051905081810181811067ffffffffffffffff8211171561317157613170613466565b5b8060405250919050565b600067ffffffffffffffff82111561319657613195613466565b5b601f19601f8301169050602081019050919050565b6000819050919050565b600060089050919050565b600081519050919050565b6000602082019050919050565b600081905092915050565b600082825260208201905092915050565b60006131ff8261330a565b915061320a8361330a565b9250827fffffffffffffffffffffffffffffffffffffffffffffffffffffffffffffffff0382111561323f5761323e613408565b5b828201905092915050565b60006132558261330a565b91506132608361330a565b9250817fffffffffffffffffffffffffffffffffffffffffffffffffffffffffffffffff048311821515161561329957613298613408565b5b828202905092915050565b60006132af8261330a565b91506132ba8361330a565b9250828210156132cd576132cc613408565b5b828203905092915050565b60006132e3826132ea565b9050919050565b600073ffffffffffffffffffffffffffffffffffffffff82169050919050565b6000819050919050565b600060ff82169050919050565b82818337600083830152505050565b60005b8381101561334e578082015181840152602081019050613333565b8381111561335d576000848401525b50505050565b6000600282049050600182168061337b57607f821691505b6020821081141561338f5761338e613437565b5b50919050565b60006133a08261330a565b91507fffffffffffffffffffffffffffffffffffffffffffffffffffffffffffffffff8214156133d3576133d2613408565b5b600182019050919050565b60006133e982613314565b915060ff8214156133fd576133fc613408565b5b600182019050919050565b7f4e487b7100000000000000000000000000000000000000000000000000000000600052601160045260246000fd5b7f4e487b7100000000000000000000000000000000000000000000000000000000600052602260045260246000fd5b7f4e487b7100000000000000000000000000000000000000000000000000000000600052604160045260246000fd5b6000601f19601f8301169050919050565b6134af816132d8565b81146134ba57600080fd5b50565b6134c68161330a565b81146134d157600080fd5b50565b6134dd81613314565b81146134e857600080fd5b5056fea2646970667358221220b86838e0e2a8767f3b91ba5b92e9af96a41354922c883ea7725814251d58c45064736f6c63430008000033",
  "immutableReferences": {},
  "source": "\r\npragma solidity 0.8.0;\r\n \r\n contract BloodBank{\r\n     \r\n     \r\n        address public owner;\r\n        \r\n        enum BloodGroup{\r\n              A_positive, //0\r\n              A_negative, //1\r\n              B_positive, //2\r\n              B_negative,  //3\r\n              AB_positive, //4\r\n              AB_negative, //5\r\n              O_positive,  //6\r\n              O_negative   //7\r\n              }\r\n        \r\n         struct Requests{\r\n             address _requester;\r\n             address _to;\r\n             uint8 _bloodgrp;\r\n             uint256 _qty;\r\n             uint isGranted;\r\n             }     \r\n      \r\n              \r\n        struct  Bloodbank{\r\n            address add;\r\n            string  name;\r\n            string  city;\r\n            string  email;\r\n            uint256 contact;\r\n            uint8 isBank;\r\n            uint8 isadmin;\r\n            mapping(uint8 => uint256)  stock;\r\n            }\r\n        \r\n      struct Donor{\r\n              address add;\r\n              address cadd;\r\n              string name;\r\n              string city;\r\n              uint256 contact;\r\n              uint256 age;\r\n              string  gender;\r\n              string bloodgrp;\r\n              string cname;\r\n              uint256 recentDonation;\r\n              uint8 isDonor;\r\n              uint256 _slot;\r\n           }\r\n       \r\n        //Mappings\r\n        mapping(address=> uint256) public bankId;\r\n        mapping(uint256=> Bloodbank) public banks;\r\n        mapping(address=> uint256) public donorId;\r\n        mapping(uint256=> Donor) public donors;\r\n        mapping(uint256 =>Requests) public request;\r\n        mapping(uint256 => uint256[]) public slot;\r\n        \r\n        //events\r\n        event Bookslot(address _for, uint256 _time,uint256 _slottime);\r\n        event DonorRegistered(address _donor,address _center,string _bloodgrp,uint256 _recentDonation);\r\n        event BankRegistered(address _bank,string _centerName);\r\n        event BloodRequest(address _requester,address _center,uint8 _bloodgrp, uint256 _units,uint256 _time);\r\n        event RequestGranted(address _admin, uint256 _requesterid,uint256 _time);\r\n        event StockIncreased(address _center,uint8 _bloodgrp,uint256 _qty,uint256 _time);\r\n        event StockDecreased(address _center,uint8 _bloodgrp,uint256 _qty,uint256 _time);\r\n        \r\n        //counters & arrays\r\n        uint256 public counterB;\r\n        uint256 public counterD;\r\n        uint256 public counterR;\r\n        uint256[8]  Showstock;\r\n        uint256[]   timestamp;\r\n       \r\n       \r\n        constructor( ){\r\n            owner = msg.sender;\r\n           }\r\n           \r\n           //admin check\r\n           modifier onlyAdmin(address _add) {\r\n               uint256 id = bankId[_add];\r\n               require(banks[id].isadmin == 1 || _add == owner , \"You don't have access.\");\r\n               _;\r\n           }\r\n            \r\n            //Add new Bloodbank\r\n          function NewBank(     \r\n            address _add,\r\n            string memory _name,\r\n            string memory _city, \r\n            string memory _email,\r\n            uint256 _contact\r\n        \r\n            ) onlyAdmin(msg.sender) public {\r\n            require(banks[bankId[msg.sender]].isBank == 0,\"Bloodbank is already registered\");\r\n            counterB++;\r\n            Bloodbank storage bank = banks[counterB];\r\n            bankId[_add] = counterB;\r\n            bank.add = _add;\r\n            bank.name = _name;\r\n            bank.city = _city;\r\n            bank.email = _email;\r\n            bank.contact = _contact;\r\n            bank.isBank = 1;\r\n            bank.isadmin = 1;\r\n            emit BankRegistered( _add,_name);\r\n        }\r\n        \r\n           //View Bloodbank's Data\r\n          function ViewBank(        \r\n            address _add\r\n            ) onlyAdmin(msg.sender) public view returns(\r\n                address, \r\n                string memory, \r\n                string memory, \r\n                string memory,\r\n                uint256,\r\n                uint8,\r\n                uint8){\r\n            uint256 id = bankId[_add];\r\n            return (\r\n                banks[id].add,\r\n                banks[id].name,\r\n                banks[id].city,\r\n                banks[id].email,\r\n                banks[id].contact,\r\n                banks[id].isBank,\r\n                 banks[id].isadmin\r\n                );\r\n        }      \r\n        \r\n         //After registration of donor, admin will book slot for donor if recentDonation condition fulfills\r\n         function BookSlot(address _donor,uint256 _slottime) onlyAdmin(msg.sender) public{\r\n              //check the recentDonation of donor is 56 days, if valid then only send slot\r\n              require(donors[donorId[_donor]].recentDonation >= (56 * 1 days),\"Wait for some days.\");\r\n              uint256 id = donorId[_donor]; \r\n              donors[id]._slot = _slottime;\r\n              slot[id].push(_slottime);\r\n              emit Bookslot( _donor,block.timestamp,_slottime);\r\n          }\r\n        \r\n        \r\n          //If stock is available admin will grant request\r\n         function GrantRequest(\r\n              uint _id)\r\n              public onlyAdmin(msg.sender) { //Admin will grant the blood request  if stock available\r\n              uint8 grp = request[_id]._bloodgrp;\r\n              require(banks[_id].stock[grp] != 0,\"Stock is empty\");\r\n              request[_id].isGranted = 1;\r\n               emit RequestGranted(msg.sender, _id,block.timestamp);\r\n          }\r\n          \r\n          //Quantity minus\r\n         function ReduceStock(address _add,uint8 _bloodgrp,uint256 _qty)onlyAdmin(msg.sender) public {\r\n             banks[bankId[_add]].stock[_bloodgrp] -= _qty;\r\n              emit StockDecreased(msg.sender,_bloodgrp , _qty,block.timestamp);\r\n         }\r\n          \r\n          //Quantity plus\r\n         function IncreaseStock(address _add,uint8 _bloodgrp,uint256 _qty)onlyAdmin(msg.sender) public {\r\n             banks[bankId[_add]].stock[_bloodgrp] += _qty;\r\n             emit StockIncreased(msg.sender,_bloodgrp , _qty,block.timestamp);\r\n         }\r\n         \r\n        \r\n            //Register Donor\r\n        function RegisterDonor(  \r\n              address _cadd,                    \r\n              string memory _name,\r\n              string memory _city,\r\n              uint256 _contact,\r\n              uint256 _age,\r\n              string memory _gender,\r\n              string memory _bloodgrp,\r\n              string memory _cname,\r\n              uint256 _recentDonation\r\n              ) public {\r\n                  require(donors[donorId[msg.sender]].isDonor==0,\"Already registered\");\r\n                  require(banks[bankId[_cadd]].isBank == 1, \"Bloodbank not exist\");\r\n                  counterD++;\r\n                  Donor memory donor;\r\n                  donorId[msg.sender] = counterD;\r\n                  donor.add = msg.sender;\r\n                  donor.cadd = _cadd;\r\n                  donor.name = _name;\r\n                  donor.city = _city;\r\n                  donor.contact = _contact;\r\n                  donor.age = _age;\r\n                  donor.gender = _gender;\r\n                  donor.bloodgrp = _bloodgrp;\r\n                  donor.cname = _cname;\r\n                  donor.recentDonation = (_recentDonation * 1 days);\r\n                  donor.isDonor = 1;\r\n                  donors[counterD] = donor;\r\n                 emit DonorRegistered(msg.sender,_cadd,_bloodgrp,_recentDonation);\r\n              } \r\n              \r\n             // View Donor's Data \r\n        function ViewDonor(\r\n                     address _add) \r\n                     public view returns(  \r\n                     address,\r\n                     address,\r\n                     string memory,\r\n                     string  memory,\r\n                     uint256,\r\n                     uint256,\r\n                     string  memory,\r\n                     string  memory,\r\n                     string  memory,\r\n                     uint256,\r\n                     uint256){\r\n                     uint256 id = donorId[_add];\r\n            return( donors[id].add, \r\n                     donors[id].cadd,\r\n                     donors[id].name, \r\n                     donors[id].city,  \r\n                     donors[id].contact,\r\n                     donors[id].age, \r\n                     donors[id].gender, \r\n                     donors[id].bloodgrp,\r\n                     donors[id].cname,\r\n                     donors[id].recentDonation,\r\n                     donors[id]._slot\r\n                  );\r\n          } \r\n          \r\n          //Request for blood to particular center\r\n          function RequestBlood(address _add,uint8 _bloodgrp,uint256 _units) public { \r\n              counterR++;\r\n              Requests memory req = Requests(msg.sender,_add,_bloodgrp,_units,0);\r\n              request[counterR] = req;\r\n               emit BloodRequest(msg.sender, _add, _bloodgrp, _units,block.timestamp);\r\n          }\r\n          \r\n          //Stock availability\r\n            function viewStock(address _add) public view returns(uint256[8] memory) {\r\n                uint256[8] memory s;\r\n                for(uint8 i; i<8 ; i++){\r\n                   s[i] = banks[bankId[_add]].stock[i];\r\n                }\r\n            return s;\r\n            }\r\n\r\n }       \r\n           ",
  "sourcePath": "C:/Users/Acer/Desktop/Contract-1/contracts/Bloodbank.sol",
  "compiler": {
    "name": "solc",
    "version": "0.8.0+commit.c7dfd78e.Emscripten.clang"
  },
  "schemaVersion": "3.4.0",
  "updatedAt": "2021-07-01T16:44:30.287Z",
  "devdoc": {
    "kind": "dev",
    "methods": {},
    "version": 1
  },
  "userdoc": {
    "kind": "user",
    "methods": {},
    "version": 1
  }
}